{
	"data": {
		"bytecode": {
			"linkReferences": {},
			"object": "6080604052620f4240600055620f4240600155612710600255612710600355601360045560146005556103e860065566038d7ea4c68000600755600360085567016345785d8a000060095564e8d4a51000600a55611388600b5534801561006557600080fd5b506136f5806100756000396000f3fe6080604052600436106102455760003560e01c806353ebf40111610139578063b1ce1dd2116100b6578063cab9b6de1161007a578063cab9b6de14610aaf578063d23cbebc14610ad9578063d2d7231f14610c1b578063d59c3cd514610c45578063f52ca97014610c90578063fa3cbf4714610ca557610245565b8063b1ce1dd214610a14578063b97dd9e214610a37578063ba16d60014610a4c578063c107532914610a61578063c4602f4d14610a9a57610245565b80638187f184116100fd5780638187f1841461088857806386d2f651146108dc578063abe55c24146108f1578063ac5e13e714610906578063afe73a26146109de57610245565b806353ebf4011461069457806358c168a0146106dd57806365776ed61461082557806366a78e6c1461083a578063778661021461084f57610245565b806333d052ff116101c75780634a72b7111161018b5780634a72b7111461055d5780634a845b74146105ae5780634c2ee09d146105d85780634e4b3bef14610602578063515e7d851461061757610245565b806333d052ff146104ca5780633563765f146104df578063360f5027146104f4578063455970381461051e57806346df33d21461053357610245565b80630d3d31941161020e5780630d3d3194146102de57806313ed0846146102f35780631fdeb3351461032357806324f453d1146103385780632e0e6af21461036457610245565b8062af0fd21461024a57806301f384a91461027157806303d3d04b1461028657806309b43159146102b45780630a893664146102c9575b600080fd5b34801561025657600080fd5b5061025f610d2b565b60408051918252519081900360200190f35b34801561027d57600080fd5b5061025f610d31565b6102b26004803603604081101561029c57600080fd5b506001600160a01b038135169060200135610d45565b005b3480156102c057600080fd5b5061025f6110c0565b3480156102d557600080fd5b5061025f6110c6565b3480156102ea57600080fd5b5061025f6110cc565b3480156102ff57600080fd5b5061025f6004803603604081101561031657600080fd5b50803590602001356110d2565b34801561032f57600080fd5b5061025f61112d565b6102b26004803603604081101561034e57600080fd5b506001600160a01b038135169060200135611133565b34801561037057600080fd5b506103946004803603604081101561038757600080fd5b5080359060200135611328565b60405180806020018d6001600160a01b03166001600160a01b03168152602001806020018c81526020018b81526020018a815260200189815260200188815260200187815260200186815260200185815260200184815260200183810383528f818151815260200191508051906020019080838360005b8381101561042357818101518382015260200161040b565b50505050905090810190601f1680156104505780820380516001836020036101000a031916815260200191505b5083810382528d5181528d516020918201918f019080838360005b8381101561048357818101518382015260200161046b565b50505050905090810190601f1680156104b05780820380516001836020036101000a031916815260200191505b509e50505050505050505050505050505060405180910390f35b3480156104d657600080fd5b5061025f6114aa565b3480156104eb57600080fd5b5061025f6114cb565b34801561050057600080fd5b5061025f6004803603602081101561051757600080fd5b50356114e7565b34801561052a57600080fd5b5061025f611504565b34801561053f57600080fd5b5061025f6004803603602081101561055657600080fd5b503561150a565b34801561056957600080fd5b506102b2600480360360e081101561058057600080fd5b5080359060ff6020820135169060408101359060608101359060808101359060a08101359060c00135611528565b3480156105ba57600080fd5b5061025f600480360360208110156105d157600080fd5b50356117dd565b3480156105e457600080fd5b506102b2600480360360208110156105fb57600080fd5b50356117ef565b34801561060e57600080fd5b5061025f61198c565b34801561062357600080fd5b50610678600480360361010081101561063b57600080fd5b5080359060ff6020820135169060408101359060608101359060808101359060a0810135906001600160a01b0360c0820135169060e00135611992565b604080516001600160a01b039092168252519081900360200190f35b3480156106a057600080fd5b5061025f600480360360808110156106b757600080fd5b506001600160a01b03813581169160208101358216916040820135169060600135611a91565b6102b260048036036101008110156106f457600080fd5b81359190810190604081016020820135600160201b81111561071557600080fd5b82018360208201111561072757600080fd5b803590602001918460018302840111600160201b8311171561074857600080fd5b91908080601f0160208091040260200160405190810160405280939291908181526020018383808284376000920191909152509295949360208101935035915050600160201b81111561079a57600080fd5b8201836020820111156107ac57600080fd5b803590602001918460018302840111600160201b831117156107cd57600080fd5b91908080601f0160208091040260200160405190810160405280939291908181526020018383808284376000920191909152509295505082359350505060208101359060408101359060608101359060800135611abd565b34801561083157600080fd5b5061025f61230c565b34801561084657600080fd5b5061025f612312565b34801561085b57600080fd5b5061025f6004803603604081101561087257600080fd5b50803590602001356001600160a01b0316612318565b34801561089457600080fd5b506108c3600480360360408110156108ab57600080fd5b506001600160a01b0381358116916020013516612335565b6040805192835260208301919091528051918290030190f35b3480156108e857600080fd5b5061025f612359565b3480156108fd57600080fd5b5061025f61236b565b34801561091257600080fd5b506109be6004803603604081101561092957600080fd5b81359190810190604081016020820135600160201b81111561094a57600080fd5b82018360208201111561095c57600080fd5b803590602001918460018302840111600160201b8311171561097d57600080fd5b91908080601f016020809104026020016040519081016040528093929190818152602001838380828437600092019190915250929550612371945050505050565b604080519315158452602084019290925282820152519081900360600190f35b3480156109ea57600080fd5b5061025f60048036036060811015610a0157600080fd5b50803590602081013590604001356123f1565b6102b260048036036040811015610a2a57600080fd5b508035906020013561270b565b348015610a4357600080fd5b5061025f6127f6565b348015610a5857600080fd5b5061025f61280b565b348015610a6d57600080fd5b506102b260048036036040811015610a8457600080fd5b506001600160a01b038135169060200135612811565b348015610aa657600080fd5b5061025f612986565b348015610abb57600080fd5b506102b260048036036020811015610ad257600080fd5b503561298c565b348015610ae557600080fd5b506102b2600480360360a0811015610afc57600080fd5b81359190810190604081016020820135600160201b811115610b1d57600080fd5b820183602082011115610b2f57600080fd5b803590602001918460018302840111600160201b83111715610b5057600080fd5b91908080601f0160208091040260200160405190810160405280939291908181526020018383808284376000920191909152509295949360208101935035915050600160201b811115610ba257600080fd5b820183602082011115610bb457600080fd5b803590602001918460018302840111600160201b83111715610bd557600080fd5b91908080601f0160208091040260200160405190810160405280939291908181526020018383808284376000920191909152509295505082359350505060200135612b26565b348015610c2757600080fd5b5061025f60048036036020811015610c3e57600080fd5b5035612db6565b348015610c5157600080fd5b50610678600480360360c0811015610c6857600080fd5b5080359060208101359060ff6040820135169060608101359060808101359060a00135612dea565b348015610c9c57600080fd5b5061025f612ec3565b348015610cb157600080fd5b506102b260048036036101a0811015610cc957600080fd5b5080359060ff602082013581169160408101359160608201359160808101359160a0820135169060c08101359060e0810135906101008101359061012081013590610140810135906001600160a01b0361016082013516906101800135612ed3565b60085481565b336000908152600f60205260409020545b90565b6000610d4f6127f6565b60008181526012602090815260408083206001600160a01b038816845290915290205490915080610dbb576040805162461bcd60e51b815260206004820152601160248201527014995b185e595c881b9bdd08199bdd5b99607a1b604482015290519081900360640190fd5b60008281526011602090815260408083208484529091529020600b0154610e135760405162461bcd60e51b81526004018080602001828103825260308152602001806135d46030913960400191505060405180910390fd5b60003411610e525760405162461bcd60e51b81526004018080602001828103825260278152602001806134906027913960400191505060405180910390fd5b438311610e905760405162461bcd60e51b815260040180806020018281038252602e815260200180613604602e913960400191505060405180910390fd5b3360009081526013602090815260408083206001600160a01b0388168452909152902054610ee0576000828152601160209081526040808320848452909152902060060180546001019055610f42565b3360009081526013602090815260408083206001600160a01b0388168452909152902054831015610f425760405162461bcd60e51b815260040180806020018281038252604781526020018061358d6047913960600191505060405180910390fd5b3360009081526013602090815260408083206001600160a01b0388168452825280832086905584835260118252808320848452909152902060038101546006909101541115610fd8576040805162461bcd60e51b815260206004820152601860248201527f4d6178207573657273206c696d69742076696f6c617465640000000000000000604482015290519081900360640190fd5b600082815260116020908152604080832084845290915290206007810180543401908190556004909101541015611056576040805162461bcd60e51b815260206004820152601860248201527f4d617820636f696e73206c696d69742076696f6c617465640000000000000000604482015290519081900360640190fd5b3360008181526013602090815260408083206001600160a01b03891680855290835292819020600101805434908101909155815190815290517f3bc57f469ad6d10d7723ea226cd22bd2b9e527def2b529f6ab44645a16689582929181900390910190a350505050565b60025481565b60055481565b600b5481565b60008282106110e057600080fd5b600060015484816110ed57fe5b0460010190506000816009548161110057fe5b0490506001841561111057508385035b600a54818302908110156111235750600a545b9695505050505050565b60015481565b6000341161114057600080fd5b6001600160a01b03821633141561115657600080fd5b61115e6132a7565b6040805133606090811b6020808401919091529086901b6bffffffffffffffffffffffff191660348301524260488084019190915283518084039091018152606890920183528151918101919091208084526000908152600e909152206005015460ff1615611214576040805162461bcd60e51b815260206004820152601a60248201527f4368616e6e656c20496420616c7265616479206578697374732e000000000000604482015290519081900360640190fd5b8051336000818152600d60209081526040808320600f80845282852080548652918452828520969096558484529482528454600190810190955534608087018181528388018681526001600160a01b038b8116858b0181815260a08c018b815242620151808f020160608e019081528d518b52600e8a52998890208d5180825595519c810180549d86166001600160a01b03199e8f161790559151600283018054919095169c169b909b17909255965160038201559151600483015596516005909101805491151560ff19909216919091179055815195865291850191909152805191937f448d27f1fe12f92a2070111296e68fd6ef0a01c0e05bf5819eda0dbcf267bf3d929081900390910190a3505050565b601160209081526000928352604080842082529183529181902080548251601f6002600019610100600186161502019093169290920491820185900485028101850190935280835290928391908301828280156113c65780601f1061139b576101008083540402835291602001916113c6565b820191906000526020600020905b8154815290600101906020018083116113a957829003601f168201915b505050506001838101546002808601805460408051602061010097841615979097026000190190921693909304601f810186900486028201860190935282815295966001600160a01b0390931695929450919283018282801561146a5780601f1061143f5761010080835404028352916020019161146a565b820191906000526020600020905b81548152906001019060200180831161144d57829003601f168201915b50505050509080600301549080600401549080600501549080600601549080600701549080600801549080600901549080600a01549080600b015490508c565b60006114c66000546114ba6127f6565b9063ffffffff61323316565b905090565b60006114c66002546114db6114aa565b9063ffffffff61325316565b336000908152600d60209081526040808320938352929052205490565b60075481565b6000805461151f90839063ffffffff61326516565b60010192915050565b604080516020808201869052818301859052606080830185905283518084039091018152608090920190925280519101208781146115975760405162461bcd60e51b815260040180806020018281038252603481526020018061350a6034913960400191505060405180910390fd5b60408051600080825260208083018085528c905260ff8b1683850152606083018a9052608083018990529251909260019260a080820193601f1981019281900390910190855afa1580156115ef573d6000803e3d6000fd5b505060408051601f1901516000888152600e60205291909120600101549092506001600160a01b03808416911614905061165a5760405162461bcd60e51b81526004018080602001828103825260228152602001806133c16022913960400191505060405180910390fd5b6000858152600c6020908152604080832087845290915290205483116116b15760405162461bcd60e51b815260040180806020018281038252605a81526020018061340e605a913960600191505060405180910390fd5b6000858152600c602090815260408083208784528252808320805490879055888452600e909252909120600401549084039081111561172e576040805162461bcd60e51b8152602060048201526014602482015273496e73756666696369656e742062616c616e636560601b604482015290519081900360640190fd5b6000868152600e602052604080822060048101805485900390556002015490516001600160a01b0390911691829184156108fc0291859190818181858888f19350505050158015611783573d6000803e3d6000fd5b50806001600160a01b0316836001600160a01b0316887f2043ce36a2efd68e4ab83ff69ddaf208d5db9c1bebbc9d7323680508df43e88e856040518082815260200191505060405180910390a45050505050505050505050565b60106020526000908152604090205481565b6000818152600e6020526040902060040154611849576040805162461bcd60e51b8152602060048201526014602482015273496e73756666696369656e742062616c616e636560601b604482015290519081900360640190fd5b6000818152600e60205260409020600101546001600160a01b031633146118a15760405162461bcd60e51b81526004018080602001828103825260298152602001806133986029913960400191505060405180910390fd5b6000818152600e602052604090206003015442116118fa576040805162461bcd60e51b815260206004820152601160248201527010985b185b98d9481a5cc81b1bd8dad959607a1b604482015290519081900360640190fd5b6000818152600e6020526040808220600481018054908490556005909101805460ff1916905590519091339183156108fc0291849190818181858888f1935050505015801561194d573d6000803e3d6000fd5b506040805183815260208101839052815133927f180ea96fa778b12bb1fc654d1945f3a13b23f0d7c6e600f2cbee2ab553d7ed18928290030190a25050565b60005481565b604080516bffffffffffffffffffffffff19606085901b16602080830191909152603482018790526054820184905260748083018790528351808403909101815260949092019092528051910120600090898114611a215760405162461bcd60e51b815260040180806020018281038252603481526020018061350a6034913960400191505060405180910390fd5b604080516000815260208082018084528d905260ff8c1682840152606082018b9052608082018a9052915160019260a0808401939192601f1981019281900390910190855afa158015611a78573d6000803e3d6000fd5b5050604051601f1901519b9a5050505050505050505050565b601460209081526000948552604080862082529385528385208152918452828420909152825290205481565b6001881115611b5057611ace612ec3565b4310611b0b5760405162461bcd60e51b81526004018080602001828103825260238152602001806133756023913960400191505060405180910390fd5b611b136127f6565b8811611b505760405162461bcd60e51b815260040180806020018281038252602b8152602001806133e3602b913960400191505060405180910390fd5b60008411611b8f5760405162461bcd60e51b81526004018080602001828103825260218152602001806134e96021913960400191505060405180910390fd5b60008311611bce5760405162461bcd60e51b81526004018080602001828103825260218152602001806136326021913960400191505060405180910390fd5b60008211611c0d5760405162461bcd60e51b81526004018080602001828103825260288152602001806134686028913960400191505060405180910390fd5b60008111611c4c5760405162461bcd60e51b815260040180806020018281038252602881526020018061353e6028913960400191505060405180910390fd5b6103e88510611ca2576040805162461bcd60e51b815260206004820152601d60248201527f4665652073686f756c64206265206c6f776572207468616e2031303030000000604482015290519081900360640190fd5b6000611caf8585856123f1565b905034811115611d06576040805162461bcd60e51b815260206004820152601760248201527f496e76616c696420726571756972656420616d6f756e74000000000000000000604482015290519081900360640190fd5b600089815260126020908152604080832033845290915290205415611d5c5760405162461bcd60e51b81526004018080602001828103825260278152602001806135666027913960400191505060405180910390fd5b60008981526010602052604090205460055481106120d45760008060015b838111611ddd5760008d81526011602090815260408083208484529091529020600b0154341115611dd55760008d81526011602090815260408083208484529091529020600101546001600160a01b03169250905080611ddd565b600101611d7a565b506001600160a01b038216611e31576040805162461bcd60e51b815260206004820152601560248201527414995b185e595c9cc81b1a5cdd081a5cc8199d5b1b605a1b604482015290519081900360640190fd5b6000601160008e81526020019081526020016000206000838152602001908152602001600020600b015490506000601260008f81526020019081526020016000206000856001600160a01b03166001600160a01b031681526020019081526020016000208190555089601160008f81526020019081526020016000206000848152602001908152602001600020600a018190555088601160008f815260200190815260200160002060008481526020019081526020016000206003018190555087601160008f815260200190815260200160002060008481526020019081526020016000206004018190555086601160008f815260200190815260200160002060008481526020019081526020016000206005018190555085601160008f815260200190815260200160002060008481526020019081526020016000206009018190555084601160008f81526020019081526020016000206000848152602001908152602001600020600b01819055508a601160008f815260200190815260200160002060008481526020019081526020016000206000019080519060200190611fdc9291906132dc565b5060008d815260116020908152604080832085845282529091208d5161200a926002909201918f01906132dc565b5033601160008f8152602001908152602001600020600084815260200190815260200160002060010160006101000a8154816001600160a01b0302191690836001600160a01b0316021790555081601260008f81526020019081526020016000206000336001600160a01b03166001600160a01b0316815260200190815260200160002081905550826001600160a01b03166108fc829081150290604051600060405180830381858888f193505050501580156120cb573d6000803e3d6000fd5b505050506121db565b60008a81526010602090815260408083208054600101808255601184528285209085528352818420600a018b9055805484528184206003018a905580548452818420600401899055805484528184206005018890558054845281842060090187905580548452818420600b018690555483529091208951612157928b01906132dc565b5060008a81526011602090815260408083206010835281842054845282529091208a5161218c926002909201918c01906132dc565b5060008a8152601160209081526040808320601083528184208054855290835281842060010180546001600160a01b031916339081179091558e85529054601284528285209185529252909120555b336001600160a01b0316336001600160a01b03168b7f59283cab2093e7640fb7594ffa35f57d87efd64488b7035867d3db67d0dcc6df8c8c8c89604051808060200180602001858152602001848152602001838103835287818151815260200191508051906020019080838360005b8381101561226257818101518382015260200161224a565b50505050905090810190601f16801561228f5780820380516001836020036101000a031916815260200191505b50838103825286518152865160209182019188019080838360005b838110156122c25781810151838201526020016122aa565b50505050905090810190601f1680156122ef5780820380516001836020036101000a031916815260200191505b50965050505050505060405180910390a450505050505050505050565b60045481565b60095481565b601260209081526000928352604080842090915290825290205481565b60136020908152600092835260408084209091529082529020805460019091015482565b60006123636127f6565b600101905090565b60065481565b600080600080846040516020018082805190602001908083835b602083106123aa5780518252601f19909201916020918201910161238b565b51815160209384036101000a60001901801990921691161790526040805192909401828103601f1901835290935280519201919091208981149a9098509650505050505050565b60006103e8841161241b576124158468056bc75e2d6310000063ffffffff61323316565b016124f3565b6103e7199093019269152d02c7e14af680000001612710841161245157612415846802b5e3af16b188000063ffffffff61323316565b61270f19909301926969e10de76676d080000001620186a08411612488576124158468015af1d78b58c4000063ffffffff61323316565b6201869f19909301926a021165458500521280000001620f424084116124c357612415846806c6b935b8bbd40000600a63ffffffff61329216565b620f423f19909301926a0a56fa5b99019a5c800000016124f184678ac7230489e8000063ffffffff61323316565b015b683635c9adc5dea00000831161251e57612518836101f46103e863ffffffff61329216565b016125f2565b683635c9adc5de9fffff19909201916101f40169021e19e0c9bab24000008311612556576125188360c86103e863ffffffff61329216565b69021e19e0c9bab23fffff19909201916107d00169152d02c7e14af6800000831161258f576125188360646103e863ffffffff61329216565b69152d02c7e14af67fffff19909201916127100169d3c21bcecceda100000083116125c85761251883600a6103e863ffffffff61329216565b69d3c21bcecceda0ffffff1990920191612710016125f08360016103e863ffffffff61329216565b015b600a821161261e576126188269021e19e0c9bab2400000620186a063ffffffff61329216565b01612704565b60091990910190670de0b6b3a7640000016103e882116126565761261882691969368974c05b000000620186a063ffffffff61329216565b6103e7199091019068410d586a20a4c0000001620186a082116126915761261882691fc3842bd1f071c00000620186a063ffffffff61329216565b6201869f1990910190691fc3842bd1f071c00000016298968082116126ce5761261882692a5a058fc295ed000000620186a063ffffffff61329216565b6298967f19909101906a108b2a2c28029094000000016127028269d3c21bcecceda1000000620186a063ffffffff61329216565b015b9392505050565b6000341161271857600080fd5b6000828152600e60205260409020600101546001600160a01b031633146127705760405162461bcd60e51b81526004018080602001828103825260298152602001806133986029913960400191505060405180910390fd5b6000828152600e602052604090206005015460ff1661278e57600080fd5b6000828152600e60209081526040918290206004810180543490810190915560039091018054620151808602019055825185815291820152815133927ff32e9c41a6ecb97a6a440f3b80ab2000cf8ace6e10fa58f4b5e6c1cffdf7f9cc928290030190a25050565b6000805461236390439063ffffffff61326516565b600a5481565b3360009081526013602090815260408083206001600160a01b03861684529091529020544311612879576040805162461bcd60e51b815260206004820152600e60248201526d10985b185b98d9481b1bd8dad95960921b604482015290519081900360640190fd5b3360009081526013602090815260408083206001600160a01b03861684529091529020600101548111156128eb576040805162461bcd60e51b8152602060048201526014602482015273496e73756666696369656e742062616c616e636560601b604482015290519081900360640190fd5b3360008181526013602090815260408083206001600160a01b0387168452909152808220600101805485900390555183156108fc0291849190818181858888f19350505050158015612941573d6000803e3d6000fd5b5060408051828152905133916001600160a01b038516917f6985a6dd52aeb8194df40b7af2f362f362440affc39c1314649abc28dbf6b6289181900360200190a35050565b60035481565b6000818152601260209081526040808320338452909152902054806129ec576040805162461bcd60e51b815260206004820152601160248201527014995b185e595c881b9bdd08199bdd5b99607a1b604482015290519081900360640190fd5b60006129f66127f6565b9050600181038310612a395760405162461bcd60e51b81526004018080602001828103825260328152602001806134b76032913960400191505060405180910390fd5b60008381526011602090815260408083208584529091529020600b015480612a9f576040805162461bcd60e51b8152602060048201526014602482015273496e73756666696369656e742062616c616e636560601b604482015290519081900360640190fd5b6000848152601160209081526040808320868452909152808220600b0182905551339183156108fc02918491818181858888f19350505050158015612ae8573d6000803e3d6000fd5b50604080518281529051339186917f8da668c6f9c27773056d4ff76370e725cb35c64b834cbc73f385fc331703cb769181900360200190a350505050565b600085815260126020908152604080832033845290915290205480612b86576040805162461bcd60e51b815260206004820152601160248201527014995b185e595c881b9bdd08199bdd5b99607a1b604482015290519081900360640190fd5b6103e88310612bdc576040805162461bcd60e51b815260206004820152601d60248201527f4665652073686f756c64206265206c6f776572207468616e2031303030000000604482015290519081900360640190fd5b60008211612c1b5760405162461bcd60e51b815260040180806020018281038252602881526020018061353e6028913960400191505060405180910390fd5b600086815260116020908152604080832084845282529091208651612c48926002909201918801906132dc565b50600086815260116020908152604080832084845282529091208551612c70928701906132dc565b5060008681526011602090815260408083208484528252808320600a81018790556009018590558051908101869052606081018590526080808252885190820152875133938a937f41dcc4b2357a75aa2f34bdba2016b0fa0dd2726756c900a822b2c6aefdf7a3dd938b938b938b938b939283928383019260a0850192908a01918190849084905b83811015612d10578181015183820152602001612cf8565b50505050905090810190601f168015612d3d5780820380516001836020036101000a031916815260200191505b50838103825286518152865160209182019188019080838360005b83811015612d70578181015183820152602001612d58565b50505050905090810190601f168015612d9d5780820380516001836020036101000a031916815260200191505b50965050505050505060405180910390a3505050505050565b6000806001612dd06000548561323390919063ffffffff16565b0390506000198101612de282826110d2565b949350505050565b60408051602080820189905281830184905282518083038401815260609092019092528051910120600090868114612e535760405162461bcd60e51b815260040180806020018281038252603481526020018061350a6034913960400191505060405180910390fd5b60408051600080825260208083018085528b905260ff8a168385015260608301899052608083018890529251909260019260a080820193601f1981019281900390910190855afa158015612eab573d6000803e3d6000fd5b5050604051601f1901519a9950505050505050505050565b60006114c66003546114db6114aa565b6000612ee58e8e8e8e8a8a8989611992565b90506000612ef78f8c8c8c8c8a612dea565b90506000612f048661150a565b60008181526012602090815260408083206001600160a01b038716845290915290205490915080158015612f385750600182115b15612f6657506000190160008181526012602090815260408083206001600160a01b03861684529091529020545b60008111612faf576040805162461bcd60e51b815260206004820152601160248201527014995b185e595c881b9bdd08199bdd5b99607a1b604482015290519081900360640190fd5b6001600160a01b0380851660009081526014602090815260408083208a85168452825280832093871683529281528282208c83529052205485116130245760405162461bcd60e51b815260040180806020018281038252606e815260200180613653606e913960800191505060405180910390fd5b6001600160a01b0384811660009081526014602090815260408083208a85168452825280832093871683529281528282208c8352905290812080549087905586039080438a1061312b576001600160a01b038088166000908152601360209081526040808320938a16835292905220600101548311156130e2576040805162461bcd60e51b8152602060048201526014602482015273496e73756666696369656e742062616c616e636560601b604482015290519081900360640190fd5b6001600160a01b038088166000908152601360209081526040808320938a1683529290522060010180548490039055613124838c6103e863ffffffff61329216565b9150613152565b5060008481526011602090815260408083208684529091529020600b018054839003905560015b6040516001600160a01b038a169083850380156108fc02916000818181858888f19350505050158015613189573d6000803e3d6000fd5b5081156131c8576040516001600160a01b0387169083156108fc029084906000818181858888f193505050501580156131c6573d6000803e3d6000fd5b505b60408051838152602081018590528215158183015290516001600160a01b03808c16928a821692918a16917fad9beb93032d354cb5a2882d2e01b3899620679527a37e4396f8e6dfba3572bb9181900360600190a45050505050505050505050505050505050505050565b600082820283158061324d57508284828161324a57fe5b04145b61270457fe5b60008282111561325f57fe5b50900390565b60008161326e57fe5b600082848161327957fe5b04905082848161328557fe5b0681840201841461270457fe5b6000612de26132a18585613233565b83613265565b6040805160c081018252600080825260208201819052918101829052606081018290526080810182905260a081019190915290565b828054600181600116156101000203166002900490600052602060002090601f016020900481019282601f1061331d57805160ff191683800117855561334a565b8280016001018555821561334a579182015b8281111561334a57825182559160200191906001019061332f565b5061335692915061335a565b5090565b610d4291905b80821115613356576000815560010161336056fe52656c617965727320656c656374696f6e20706572696f6420686173207061737365644d657373616765207369676e65722069736e277420746865206f776e6572206f66206368616e6e656c5369676e65722073686f756c6420626520746865206368616e6e656c204f776e65725461726765742065706f63682073686f756c642062652067726561746572207468616e2063757272656e7452657175657374656420616d6f756e742073686f756c642062652067726561746572207468616e207468652070726576696f75732066696e616c697a656420666f722050325020636f6e74656e74207472616e73616374696f6e6d617854785468726f7567687075742073686f756c642062652067726561746572207468616e20304465706f73697420616d6f756e742073686f756c642062652067726561746572207468656e203043757272656e742065706f63682073686f756c64206265206c6f776572207468616e207265717565737465642065706f63686d617855736572732073686f756c642062652067726561746572207468616e20304f66662d636861696e207472616e73616374696f6e206861736820646f65732774206d617463682077697468207061796c6f61646f6666636861696e547844656c61792073686f756c642062652067726561746572207468616e2030416c726561647920726567697374657265642052656c617965722061732063616e646964617465546865206c6f636b54696d65496e446179732073686f756c642062652067726561746572207468616e20616e792070726576696f7573206c6f636b20756e74696c20426c6f636b52656c6179657220646f65736e2774206861766520616e792072656d61696e696e672070656e616c74792066756e6473546865206c6f636b54696d65496e446179732073686f756c642062652067726561746572207468616e207a65726f6d6178436f696e732073686f756c642062652067726561746572207468616e203052657175657374656420616d6f756e742073686f756c642062652067726561746572207468616e207468652070726576696f75732066696e616c697a656420666f722077697468647261772072657175657374206f722050325020636f6e74656e74207472616e73616374696f6ea265627a7a72315820661a5505a8b5df1e5869b20f78c766208d957c1cd38e4cbbd169742d46e92fe164736f6c63430005110032",
			"opcodes": "PUSH1 0x80 PUSH1 0x40 MSTORE PUSH3 0xF4240 PUSH1 0x0 SSTORE PUSH3 0xF4240 PUSH1 0x1 SSTORE PUSH2 0x2710 PUSH1 0x2 SSTORE PUSH2 0x2710 PUSH1 0x3 SSTORE PUSH1 0x13 PUSH1 0x4 SSTORE PUSH1 0x14 PUSH1 0x5 SSTORE PUSH2 0x3E8 PUSH1 0x6 SSTORE PUSH7 0x38D7EA4C68000 PUSH1 0x7 SSTORE PUSH1 0x3 PUSH1 0x8 SSTORE PUSH8 0x16345785D8A0000 PUSH1 0x9 SSTORE PUSH5 0xE8D4A51000 PUSH1 0xA SSTORE PUSH2 0x1388 PUSH1 0xB SSTORE CALLVALUE DUP1 ISZERO PUSH2 0x65 JUMPI PUSH1 0x0 DUP1 REVERT JUMPDEST POP PUSH2 0x36F5 DUP1 PUSH2 0x75 PUSH1 0x0 CODECOPY PUSH1 0x0 RETURN INVALID PUSH1 0x80 PUSH1 0x40 MSTORE PUSH1 0x4 CALLDATASIZE LT PUSH2 0x245 JUMPI PUSH1 0x0 CALLDATALOAD PUSH1 0xE0 SHR DUP1 PUSH4 0x53EBF401 GT PUSH2 0x139 JUMPI DUP1 PUSH4 0xB1CE1DD2 GT PUSH2 0xB6 JUMPI DUP1 PUSH4 0xCAB9B6DE GT PUSH2 0x7A JUMPI DUP1 PUSH4 0xCAB9B6DE EQ PUSH2 0xAAF JUMPI DUP1 PUSH4 0xD23CBEBC EQ PUSH2 0xAD9 JUMPI DUP1 PUSH4 0xD2D7231F EQ PUSH2 0xC1B JUMPI DUP1 PUSH4 0xD59C3CD5 EQ PUSH2 0xC45 JUMPI DUP1 PUSH4 0xF52CA970 EQ PUSH2 0xC90 JUMPI DUP1 PUSH4 0xFA3CBF47 EQ PUSH2 0xCA5 JUMPI PUSH2 0x245 JUMP JUMPDEST DUP1 PUSH4 0xB1CE1DD2 EQ PUSH2 0xA14 JUMPI DUP1 PUSH4 0xB97DD9E2 EQ PUSH2 0xA37 JUMPI DUP1 PUSH4 0xBA16D600 EQ PUSH2 0xA4C JUMPI DUP1 PUSH4 0xC1075329 EQ PUSH2 0xA61 JUMPI DUP1 PUSH4 0xC4602F4D EQ PUSH2 0xA9A JUMPI PUSH2 0x245 JUMP JUMPDEST DUP1 PUSH4 0x8187F184 GT PUSH2 0xFD JUMPI DUP1 PUSH4 0x8187F184 EQ PUSH2 0x888 JUMPI DUP1 PUSH4 0x86D2F651 EQ PUSH2 0x8DC JUMPI DUP1 PUSH4 0xABE55C24 EQ PUSH2 0x8F1 JUMPI DUP1 PUSH4 0xAC5E13E7 EQ PUSH2 0x906 JUMPI DUP1 PUSH4 0xAFE73A26 EQ PUSH2 0x9DE JUMPI PUSH2 0x245 JUMP JUMPDEST DUP1 PUSH4 0x53EBF401 EQ PUSH2 0x694 JUMPI DUP1 PUSH4 0x58C168A0 EQ PUSH2 0x6DD JUMPI DUP1 PUSH4 0x65776ED6 EQ PUSH2 0x825 JUMPI DUP1 PUSH4 0x66A78E6C EQ PUSH2 0x83A JUMPI DUP1 PUSH4 0x77866102 EQ PUSH2 0x84F JUMPI PUSH2 0x245 JUMP JUMPDEST DUP1 PUSH4 0x33D052FF GT PUSH2 0x1C7 JUMPI DUP1 PUSH4 0x4A72B711 GT PUSH2 0x18B JUMPI DUP1 PUSH4 0x4A72B711 EQ PUSH2 0x55D JUMPI DUP1 PUSH4 0x4A845B74 EQ PUSH2 0x5AE JUMPI DUP1 PUSH4 0x4C2EE09D EQ PUSH2 0x5D8 JUMPI DUP1 PUSH4 0x4E4B3BEF EQ PUSH2 0x602 JUMPI DUP1 PUSH4 0x515E7D85 EQ PUSH2 0x617 JUMPI PUSH2 0x245 JUMP JUMPDEST DUP1 PUSH4 0x33D052FF EQ PUSH2 0x4CA JUMPI DUP1 PUSH4 0x3563765F EQ PUSH2 0x4DF JUMPI DUP1 PUSH4 0x360F5027 EQ PUSH2 0x4F4 JUMPI DUP1 PUSH4 0x45597038 EQ PUSH2 0x51E JUMPI DUP1 PUSH4 0x46DF33D2 EQ PUSH2 0x533 JUMPI PUSH2 0x245 JUMP JUMPDEST DUP1 PUSH4 0xD3D3194 GT PUSH2 0x20E JUMPI DUP1 PUSH4 0xD3D3194 EQ PUSH2 0x2DE JUMPI DUP1 PUSH4 0x13ED0846 EQ PUSH2 0x2F3 JUMPI DUP1 PUSH4 0x1FDEB335 EQ PUSH2 0x323 JUMPI DUP1 PUSH4 0x24F453D1 EQ PUSH2 0x338 JUMPI DUP1 PUSH4 0x2E0E6AF2 EQ PUSH2 0x364 JUMPI PUSH2 0x245 JUMP JUMPDEST DUP1 PUSH3 0xAF0FD2 EQ PUSH2 0x24A JUMPI DUP1 PUSH4 0x1F384A9 EQ PUSH2 0x271 JUMPI DUP1 PUSH4 0x3D3D04B EQ PUSH2 0x286 JUMPI DUP1 PUSH4 0x9B43159 EQ PUSH2 0x2B4 JUMPI DUP1 PUSH4 0xA893664 EQ PUSH2 0x2C9 JUMPI JUMPDEST PUSH1 0x0 DUP1 REVERT JUMPDEST CALLVALUE DUP1 ISZERO PUSH2 0x256 JUMPI PUSH1 0x0 DUP1 REVERT JUMPDEST POP PUSH2 0x25F PUSH2 0xD2B JUMP JUMPDEST PUSH1 0x40 DUP1 MLOAD SWAP2 DUP3 MSTORE MLOAD SWAP1 DUP2 SWAP1 SUB PUSH1 0x20 ADD SWAP1 RETURN JUMPDEST CALLVALUE DUP1 ISZERO PUSH2 0x27D JUMPI PUSH1 0x0 DUP1 REVERT JUMPDEST POP PUSH2 0x25F PUSH2 0xD31 JUMP JUMPDEST PUSH2 0x2B2 PUSH1 0x4 DUP1 CALLDATASIZE SUB PUSH1 0x40 DUP2 LT ISZERO PUSH2 0x29C JUMPI PUSH1 0x0 DUP1 REVERT JUMPDEST POP PUSH1 0x1 PUSH1 0x1 PUSH1 0xA0 SHL SUB DUP2 CALLDATALOAD AND SWAP1 PUSH1 0x20 ADD CALLDATALOAD PUSH2 0xD45 JUMP JUMPDEST STOP JUMPDEST CALLVALUE DUP1 ISZERO PUSH2 0x2C0 JUMPI PUSH1 0x0 DUP1 REVERT JUMPDEST POP PUSH2 0x25F PUSH2 0x10C0 JUMP JUMPDEST CALLVALUE DUP1 ISZERO PUSH2 0x2D5 JUMPI PUSH1 0x0 DUP1 REVERT JUMPDEST POP PUSH2 0x25F PUSH2 0x10C6 JUMP JUMPDEST CALLVALUE DUP1 ISZERO PUSH2 0x2EA JUMPI PUSH1 0x0 DUP1 REVERT JUMPDEST POP PUSH2 0x25F PUSH2 0x10CC JUMP JUMPDEST CALLVALUE DUP1 ISZERO PUSH2 0x2FF JUMPI PUSH1 0x0 DUP1 REVERT JUMPDEST POP PUSH2 0x25F PUSH1 0x4 DUP1 CALLDATASIZE SUB PUSH1 0x40 DUP2 LT ISZERO PUSH2 0x316 JUMPI PUSH1 0x0 DUP1 REVERT JUMPDEST POP DUP1 CALLDATALOAD SWAP1 PUSH1 0x20 ADD CALLDATALOAD PUSH2 0x10D2 JUMP JUMPDEST CALLVALUE DUP1 ISZERO PUSH2 0x32F JUMPI PUSH1 0x0 DUP1 REVERT JUMPDEST POP PUSH2 0x25F PUSH2 0x112D JUMP JUMPDEST PUSH2 0x2B2 PUSH1 0x4 DUP1 CALLDATASIZE SUB PUSH1 0x40 DUP2 LT ISZERO PUSH2 0x34E JUMPI PUSH1 0x0 DUP1 REVERT JUMPDEST POP PUSH1 0x1 PUSH1 0x1 PUSH1 0xA0 SHL SUB DUP2 CALLDATALOAD AND SWAP1 PUSH1 0x20 ADD CALLDATALOAD PUSH2 0x1133 JUMP JUMPDEST CALLVALUE DUP1 ISZERO PUSH2 0x370 JUMPI PUSH1 0x0 DUP1 REVERT JUMPDEST POP PUSH2 0x394 PUSH1 0x4 DUP1 CALLDATASIZE SUB PUSH1 0x40 DUP2 LT ISZERO PUSH2 0x387 JUMPI PUSH1 0x0 DUP1 REVERT JUMPDEST POP DUP1 CALLDATALOAD SWAP1 PUSH1 0x20 ADD CALLDATALOAD PUSH2 0x1328 JUMP JUMPDEST PUSH1 0x40 MLOAD DUP1 DUP1 PUSH1 0x20 ADD DUP14 PUSH1 0x1 PUSH1 0x1 PUSH1 0xA0 SHL SUB AND PUSH1 0x1 PUSH1 0x1 PUSH1 0xA0 SHL SUB AND DUP2 MSTORE PUSH1 0x20 ADD DUP1 PUSH1 0x20 ADD DUP13 DUP2 MSTORE PUSH1 0x20 ADD DUP12 DUP2 MSTORE PUSH1 0x20 ADD DUP11 DUP2 MSTORE PUSH1 0x20 ADD DUP10 DUP2 MSTORE PUSH1 0x20 ADD DUP9 DUP2 MSTORE PUSH1 0x20 ADD DUP8 DUP2 MSTORE PUSH1 0x20 ADD DUP7 DUP2 MSTORE PUSH1 0x20 ADD DUP6 DUP2 MSTORE PUSH1 0x20 ADD DUP5 DUP2 MSTORE PUSH1 0x20 ADD DUP4 DUP2 SUB DUP4 MSTORE DUP16 DUP2 DUP2 MLOAD DUP2 MSTORE PUSH1 0x20 ADD SWAP2 POP DUP1 MLOAD SWAP1 PUSH1 0x20 ADD SWAP1 DUP1 DUP4 DUP4 PUSH1 0x0 JUMPDEST DUP4 DUP2 LT ISZERO PUSH2 0x423 JUMPI DUP2 DUP2 ADD MLOAD DUP4 DUP3 ADD MSTORE PUSH1 0x20 ADD PUSH2 0x40B JUMP JUMPDEST POP POP POP POP SWAP1 POP SWAP1 DUP2 ADD SWAP1 PUSH1 0x1F AND DUP1 ISZERO PUSH2 0x450 JUMPI DUP1 DUP3 SUB DUP1 MLOAD PUSH1 0x1 DUP4 PUSH1 0x20 SUB PUSH2 0x100 EXP SUB NOT AND DUP2 MSTORE PUSH1 0x20 ADD SWAP2 POP JUMPDEST POP DUP4 DUP2 SUB DUP3 MSTORE DUP14 MLOAD DUP2 MSTORE DUP14 MLOAD PUSH1 0x20 SWAP2 DUP3 ADD SWAP2 DUP16 ADD SWAP1 DUP1 DUP4 DUP4 PUSH1 0x0 JUMPDEST DUP4 DUP2 LT ISZERO PUSH2 0x483 JUMPI DUP2 DUP2 ADD MLOAD DUP4 DUP3 ADD MSTORE PUSH1 0x20 ADD PUSH2 0x46B JUMP JUMPDEST POP POP POP POP SWAP1 POP SWAP1 DUP2 ADD SWAP1 PUSH1 0x1F AND DUP1 ISZERO PUSH2 0x4B0 JUMPI DUP1 DUP3 SUB DUP1 MLOAD PUSH1 0x1 DUP4 PUSH1 0x20 SUB PUSH2 0x100 EXP SUB NOT AND DUP2 MSTORE PUSH1 0x20 ADD SWAP2 POP JUMPDEST POP SWAP15 POP POP POP POP POP POP POP POP POP POP POP POP POP POP POP PUSH1 0x40 MLOAD DUP1 SWAP2 SUB SWAP1 RETURN JUMPDEST CALLVALUE DUP1 ISZERO PUSH2 0x4D6 JUMPI PUSH1 0x0 DUP1 REVERT JUMPDEST POP PUSH2 0x25F PUSH2 0x14AA JUMP JUMPDEST CALLVALUE DUP1 ISZERO PUSH2 0x4EB JUMPI PUSH1 0x0 DUP1 REVERT JUMPDEST POP PUSH2 0x25F PUSH2 0x14CB JUMP JUMPDEST CALLVALUE DUP1 ISZERO PUSH2 0x500 JUMPI PUSH1 0x0 DUP1 REVERT JUMPDEST POP PUSH2 0x25F PUSH1 0x4 DUP1 CALLDATASIZE SUB PUSH1 0x20 DUP2 LT ISZERO PUSH2 0x517 JUMPI PUSH1 0x0 DUP1 REVERT JUMPDEST POP CALLDATALOAD PUSH2 0x14E7 JUMP JUMPDEST CALLVALUE DUP1 ISZERO PUSH2 0x52A JUMPI PUSH1 0x0 DUP1 REVERT JUMPDEST POP PUSH2 0x25F PUSH2 0x1504 JUMP JUMPDEST CALLVALUE DUP1 ISZERO PUSH2 0x53F JUMPI PUSH1 0x0 DUP1 REVERT JUMPDEST POP PUSH2 0x25F PUSH1 0x4 DUP1 CALLDATASIZE SUB PUSH1 0x20 DUP2 LT ISZERO PUSH2 0x556 JUMPI PUSH1 0x0 DUP1 REVERT JUMPDEST POP CALLDATALOAD PUSH2 0x150A JUMP JUMPDEST CALLVALUE DUP1 ISZERO PUSH2 0x569 JUMPI PUSH1 0x0 DUP1 REVERT JUMPDEST POP PUSH2 0x2B2 PUSH1 0x4 DUP1 CALLDATASIZE SUB PUSH1 0xE0 DUP2 LT ISZERO PUSH2 0x580 JUMPI PUSH1 0x0 DUP1 REVERT JUMPDEST POP DUP1 CALLDATALOAD SWAP1 PUSH1 0xFF PUSH1 0x20 DUP3 ADD CALLDATALOAD AND SWAP1 PUSH1 0x40 DUP2 ADD CALLDATALOAD SWAP1 PUSH1 0x60 DUP2 ADD CALLDATALOAD SWAP1 PUSH1 0x80 DUP2 ADD CALLDATALOAD SWAP1 PUSH1 0xA0 DUP2 ADD CALLDATALOAD SWAP1 PUSH1 0xC0 ADD CALLDATALOAD PUSH2 0x1528 JUMP JUMPDEST CALLVALUE DUP1 ISZERO PUSH2 0x5BA JUMPI PUSH1 0x0 DUP1 REVERT JUMPDEST POP PUSH2 0x25F PUSH1 0x4 DUP1 CALLDATASIZE SUB PUSH1 0x20 DUP2 LT ISZERO PUSH2 0x5D1 JUMPI PUSH1 0x0 DUP1 REVERT JUMPDEST POP CALLDATALOAD PUSH2 0x17DD JUMP JUMPDEST CALLVALUE DUP1 ISZERO PUSH2 0x5E4 JUMPI PUSH1 0x0 DUP1 REVERT JUMPDEST POP PUSH2 0x2B2 PUSH1 0x4 DUP1 CALLDATASIZE SUB PUSH1 0x20 DUP2 LT ISZERO PUSH2 0x5FB JUMPI PUSH1 0x0 DUP1 REVERT JUMPDEST POP CALLDATALOAD PUSH2 0x17EF JUMP JUMPDEST CALLVALUE DUP1 ISZERO PUSH2 0x60E JUMPI PUSH1 0x0 DUP1 REVERT JUMPDEST POP PUSH2 0x25F PUSH2 0x198C JUMP JUMPDEST CALLVALUE DUP1 ISZERO PUSH2 0x623 JUMPI PUSH1 0x0 DUP1 REVERT JUMPDEST POP PUSH2 0x678 PUSH1 0x4 DUP1 CALLDATASIZE SUB PUSH2 0x100 DUP2 LT ISZERO PUSH2 0x63B JUMPI PUSH1 0x0 DUP1 REVERT JUMPDEST POP DUP1 CALLDATALOAD SWAP1 PUSH1 0xFF PUSH1 0x20 DUP3 ADD CALLDATALOAD AND SWAP1 PUSH1 0x40 DUP2 ADD CALLDATALOAD SWAP1 PUSH1 0x60 DUP2 ADD CALLDATALOAD SWAP1 PUSH1 0x80 DUP2 ADD CALLDATALOAD SWAP1 PUSH1 0xA0 DUP2 ADD CALLDATALOAD SWAP1 PUSH1 0x1 PUSH1 0x1 PUSH1 0xA0 SHL SUB PUSH1 0xC0 DUP3 ADD CALLDATALOAD AND SWAP1 PUSH1 0xE0 ADD CALLDATALOAD PUSH2 0x1992 JUMP JUMPDEST PUSH1 0x40 DUP1 MLOAD PUSH1 0x1 PUSH1 0x1 PUSH1 0xA0 SHL SUB SWAP1 SWAP3 AND DUP3 MSTORE MLOAD SWAP1 DUP2 SWAP1 SUB PUSH1 0x20 ADD SWAP1 RETURN JUMPDEST CALLVALUE DUP1 ISZERO PUSH2 0x6A0 JUMPI PUSH1 0x0 DUP1 REVERT JUMPDEST POP PUSH2 0x25F PUSH1 0x4 DUP1 CALLDATASIZE SUB PUSH1 0x80 DUP2 LT ISZERO PUSH2 0x6B7 JUMPI PUSH1 0x0 DUP1 REVERT JUMPDEST POP PUSH1 0x1 PUSH1 0x1 PUSH1 0xA0 SHL SUB DUP2 CALLDATALOAD DUP2 AND SWAP2 PUSH1 0x20 DUP2 ADD CALLDATALOAD DUP3 AND SWAP2 PUSH1 0x40 DUP3 ADD CALLDATALOAD AND SWAP1 PUSH1 0x60 ADD CALLDATALOAD PUSH2 0x1A91 JUMP JUMPDEST PUSH2 0x2B2 PUSH1 0x4 DUP1 CALLDATASIZE SUB PUSH2 0x100 DUP2 LT ISZERO PUSH2 0x6F4 JUMPI PUSH1 0x0 DUP1 REVERT JUMPDEST DUP2 CALLDATALOAD SWAP2 SWAP1 DUP2 ADD SWAP1 PUSH1 0x40 DUP2 ADD PUSH1 0x20 DUP3 ADD CALLDATALOAD PUSH1 0x1 PUSH1 0x20 SHL DUP2 GT ISZERO PUSH2 0x715 JUMPI PUSH1 0x0 DUP1 REVERT JUMPDEST DUP3 ADD DUP4 PUSH1 0x20 DUP3 ADD GT ISZERO PUSH2 0x727 JUMPI PUSH1 0x0 DUP1 REVERT JUMPDEST DUP1 CALLDATALOAD SWAP1 PUSH1 0x20 ADD SWAP2 DUP5 PUSH1 0x1 DUP4 MUL DUP5 ADD GT PUSH1 0x1 PUSH1 0x20 SHL DUP4 GT OR ISZERO PUSH2 0x748 JUMPI PUSH1 0x0 DUP1 REVERT JUMPDEST SWAP2 SWAP1 DUP1 DUP1 PUSH1 0x1F ADD PUSH1 0x20 DUP1 SWAP2 DIV MUL PUSH1 0x20 ADD PUSH1 0x40 MLOAD SWAP1 DUP2 ADD PUSH1 0x40 MSTORE DUP1 SWAP4 SWAP3 SWAP2 SWAP1 DUP2 DUP2 MSTORE PUSH1 0x20 ADD DUP4 DUP4 DUP1 DUP3 DUP5 CALLDATACOPY PUSH1 0x0 SWAP3 ADD SWAP2 SWAP1 SWAP2 MSTORE POP SWAP3 SWAP6 SWAP5 SWAP4 PUSH1 0x20 DUP2 ADD SWAP4 POP CALLDATALOAD SWAP2 POP POP PUSH1 0x1 PUSH1 0x20 SHL DUP2 GT ISZERO PUSH2 0x79A JUMPI PUSH1 0x0 DUP1 REVERT JUMPDEST DUP3 ADD DUP4 PUSH1 0x20 DUP3 ADD GT ISZERO PUSH2 0x7AC JUMPI PUSH1 0x0 DUP1 REVERT JUMPDEST DUP1 CALLDATALOAD SWAP1 PUSH1 0x20 ADD SWAP2 DUP5 PUSH1 0x1 DUP4 MUL DUP5 ADD GT PUSH1 0x1 PUSH1 0x20 SHL DUP4 GT OR ISZERO PUSH2 0x7CD JUMPI PUSH1 0x0 DUP1 REVERT JUMPDEST SWAP2 SWAP1 DUP1 DUP1 PUSH1 0x1F ADD PUSH1 0x20 DUP1 SWAP2 DIV MUL PUSH1 0x20 ADD PUSH1 0x40 MLOAD SWAP1 DUP2 ADD PUSH1 0x40 MSTORE DUP1 SWAP4 SWAP3 SWAP2 SWAP1 DUP2 DUP2 MSTORE PUSH1 0x20 ADD DUP4 DUP4 DUP1 DUP3 DUP5 CALLDATACOPY PUSH1 0x0 SWAP3 ADD SWAP2 SWAP1 SWAP2 MSTORE POP SWAP3 SWAP6 POP POP DUP3 CALLDATALOAD SWAP4 POP POP POP PUSH1 0x20 DUP2 ADD CALLDATALOAD SWAP1 PUSH1 0x40 DUP2 ADD CALLDATALOAD SWAP1 PUSH1 0x60 DUP2 ADD CALLDATALOAD SWAP1 PUSH1 0x80 ADD CALLDATALOAD PUSH2 0x1ABD JUMP JUMPDEST CALLVALUE DUP1 ISZERO PUSH2 0x831 JUMPI PUSH1 0x0 DUP1 REVERT JUMPDEST POP PUSH2 0x25F PUSH2 0x230C JUMP JUMPDEST CALLVALUE DUP1 ISZERO PUSH2 0x846 JUMPI PUSH1 0x0 DUP1 REVERT JUMPDEST POP PUSH2 0x25F PUSH2 0x2312 JUMP JUMPDEST CALLVALUE DUP1 ISZERO PUSH2 0x85B JUMPI PUSH1 0x0 DUP1 REVERT JUMPDEST POP PUSH2 0x25F PUSH1 0x4 DUP1 CALLDATASIZE SUB PUSH1 0x40 DUP2 LT ISZERO PUSH2 0x872 JUMPI PUSH1 0x0 DUP1 REVERT JUMPDEST POP DUP1 CALLDATALOAD SWAP1 PUSH1 0x20 ADD CALLDATALOAD PUSH1 0x1 PUSH1 0x1 PUSH1 0xA0 SHL SUB AND PUSH2 0x2318 JUMP JUMPDEST CALLVALUE DUP1 ISZERO PUSH2 0x894 JUMPI PUSH1 0x0 DUP1 REVERT JUMPDEST POP PUSH2 0x8C3 PUSH1 0x4 DUP1 CALLDATASIZE SUB PUSH1 0x40 DUP2 LT ISZERO PUSH2 0x8AB JUMPI PUSH1 0x0 DUP1 REVERT JUMPDEST POP PUSH1 0x1 PUSH1 0x1 PUSH1 0xA0 SHL SUB DUP2 CALLDATALOAD DUP2 AND SWAP2 PUSH1 0x20 ADD CALLDATALOAD AND PUSH2 0x2335 JUMP JUMPDEST PUSH1 0x40 DUP1 MLOAD SWAP3 DUP4 MSTORE PUSH1 0x20 DUP4 ADD SWAP2 SWAP1 SWAP2 MSTORE DUP1 MLOAD SWAP2 DUP3 SWAP1 SUB ADD SWAP1 RETURN JUMPDEST CALLVALUE DUP1 ISZERO PUSH2 0x8E8 JUMPI PUSH1 0x0 DUP1 REVERT JUMPDEST POP PUSH2 0x25F PUSH2 0x2359 JUMP JUMPDEST CALLVALUE DUP1 ISZERO PUSH2 0x8FD JUMPI PUSH1 0x0 DUP1 REVERT JUMPDEST POP PUSH2 0x25F PUSH2 0x236B JUMP JUMPDEST CALLVALUE DUP1 ISZERO PUSH2 0x912 JUMPI PUSH1 0x0 DUP1 REVERT JUMPDEST POP PUSH2 0x9BE PUSH1 0x4 DUP1 CALLDATASIZE SUB PUSH1 0x40 DUP2 LT ISZERO PUSH2 0x929 JUMPI PUSH1 0x0 DUP1 REVERT JUMPDEST DUP2 CALLDATALOAD SWAP2 SWAP1 DUP2 ADD SWAP1 PUSH1 0x40 DUP2 ADD PUSH1 0x20 DUP3 ADD CALLDATALOAD PUSH1 0x1 PUSH1 0x20 SHL DUP2 GT ISZERO PUSH2 0x94A JUMPI PUSH1 0x0 DUP1 REVERT JUMPDEST DUP3 ADD DUP4 PUSH1 0x20 DUP3 ADD GT ISZERO PUSH2 0x95C JUMPI PUSH1 0x0 DUP1 REVERT JUMPDEST DUP1 CALLDATALOAD SWAP1 PUSH1 0x20 ADD SWAP2 DUP5 PUSH1 0x1 DUP4 MUL DUP5 ADD GT PUSH1 0x1 PUSH1 0x20 SHL DUP4 GT OR ISZERO PUSH2 0x97D JUMPI PUSH1 0x0 DUP1 REVERT JUMPDEST SWAP2 SWAP1 DUP1 DUP1 PUSH1 0x1F ADD PUSH1 0x20 DUP1 SWAP2 DIV MUL PUSH1 0x20 ADD PUSH1 0x40 MLOAD SWAP1 DUP2 ADD PUSH1 0x40 MSTORE DUP1 SWAP4 SWAP3 SWAP2 SWAP1 DUP2 DUP2 MSTORE PUSH1 0x20 ADD DUP4 DUP4 DUP1 DUP3 DUP5 CALLDATACOPY PUSH1 0x0 SWAP3 ADD SWAP2 SWAP1 SWAP2 MSTORE POP SWAP3 SWAP6 POP PUSH2 0x2371 SWAP5 POP POP POP POP POP JUMP JUMPDEST PUSH1 0x40 DUP1 MLOAD SWAP4 ISZERO ISZERO DUP5 MSTORE PUSH1 0x20 DUP5 ADD SWAP3 SWAP1 SWAP3 MSTORE DUP3 DUP3 ADD MSTORE MLOAD SWAP1 DUP2 SWAP1 SUB PUSH1 0x60 ADD SWAP1 RETURN JUMPDEST CALLVALUE DUP1 ISZERO PUSH2 0x9EA JUMPI PUSH1 0x0 DUP1 REVERT JUMPDEST POP PUSH2 0x25F PUSH1 0x4 DUP1 CALLDATASIZE SUB PUSH1 0x60 DUP2 LT ISZERO PUSH2 0xA01 JUMPI PUSH1 0x0 DUP1 REVERT JUMPDEST POP DUP1 CALLDATALOAD SWAP1 PUSH1 0x20 DUP2 ADD CALLDATALOAD SWAP1 PUSH1 0x40 ADD CALLDATALOAD PUSH2 0x23F1 JUMP JUMPDEST PUSH2 0x2B2 PUSH1 0x4 DUP1 CALLDATASIZE SUB PUSH1 0x40 DUP2 LT ISZERO PUSH2 0xA2A JUMPI PUSH1 0x0 DUP1 REVERT JUMPDEST POP DUP1 CALLDATALOAD SWAP1 PUSH1 0x20 ADD CALLDATALOAD PUSH2 0x270B JUMP JUMPDEST CALLVALUE DUP1 ISZERO PUSH2 0xA43 JUMPI PUSH1 0x0 DUP1 REVERT JUMPDEST POP PUSH2 0x25F PUSH2 0x27F6 JUMP JUMPDEST CALLVALUE DUP1 ISZERO PUSH2 0xA58 JUMPI PUSH1 0x0 DUP1 REVERT JUMPDEST POP PUSH2 0x25F PUSH2 0x280B JUMP JUMPDEST CALLVALUE DUP1 ISZERO PUSH2 0xA6D JUMPI PUSH1 0x0 DUP1 REVERT JUMPDEST POP PUSH2 0x2B2 PUSH1 0x4 DUP1 CALLDATASIZE SUB PUSH1 0x40 DUP2 LT ISZERO PUSH2 0xA84 JUMPI PUSH1 0x0 DUP1 REVERT JUMPDEST POP PUSH1 0x1 PUSH1 0x1 PUSH1 0xA0 SHL SUB DUP2 CALLDATALOAD AND SWAP1 PUSH1 0x20 ADD CALLDATALOAD PUSH2 0x2811 JUMP JUMPDEST CALLVALUE DUP1 ISZERO PUSH2 0xAA6 JUMPI PUSH1 0x0 DUP1 REVERT JUMPDEST POP PUSH2 0x25F PUSH2 0x2986 JUMP JUMPDEST CALLVALUE DUP1 ISZERO PUSH2 0xABB JUMPI PUSH1 0x0 DUP1 REVERT JUMPDEST POP PUSH2 0x2B2 PUSH1 0x4 DUP1 CALLDATASIZE SUB PUSH1 0x20 DUP2 LT ISZERO PUSH2 0xAD2 JUMPI PUSH1 0x0 DUP1 REVERT JUMPDEST POP CALLDATALOAD PUSH2 0x298C JUMP JUMPDEST CALLVALUE DUP1 ISZERO PUSH2 0xAE5 JUMPI PUSH1 0x0 DUP1 REVERT JUMPDEST POP PUSH2 0x2B2 PUSH1 0x4 DUP1 CALLDATASIZE SUB PUSH1 0xA0 DUP2 LT ISZERO PUSH2 0xAFC JUMPI PUSH1 0x0 DUP1 REVERT JUMPDEST DUP2 CALLDATALOAD SWAP2 SWAP1 DUP2 ADD SWAP1 PUSH1 0x40 DUP2 ADD PUSH1 0x20 DUP3 ADD CALLDATALOAD PUSH1 0x1 PUSH1 0x20 SHL DUP2 GT ISZERO PUSH2 0xB1D JUMPI PUSH1 0x0 DUP1 REVERT JUMPDEST DUP3 ADD DUP4 PUSH1 0x20 DUP3 ADD GT ISZERO PUSH2 0xB2F JUMPI PUSH1 0x0 DUP1 REVERT JUMPDEST DUP1 CALLDATALOAD SWAP1 PUSH1 0x20 ADD SWAP2 DUP5 PUSH1 0x1 DUP4 MUL DUP5 ADD GT PUSH1 0x1 PUSH1 0x20 SHL DUP4 GT OR ISZERO PUSH2 0xB50 JUMPI PUSH1 0x0 DUP1 REVERT JUMPDEST SWAP2 SWAP1 DUP1 DUP1 PUSH1 0x1F ADD PUSH1 0x20 DUP1 SWAP2 DIV MUL PUSH1 0x20 ADD PUSH1 0x40 MLOAD SWAP1 DUP2 ADD PUSH1 0x40 MSTORE DUP1 SWAP4 SWAP3 SWAP2 SWAP1 DUP2 DUP2 MSTORE PUSH1 0x20 ADD DUP4 DUP4 DUP1 DUP3 DUP5 CALLDATACOPY PUSH1 0x0 SWAP3 ADD SWAP2 SWAP1 SWAP2 MSTORE POP SWAP3 SWAP6 SWAP5 SWAP4 PUSH1 0x20 DUP2 ADD SWAP4 POP CALLDATALOAD SWAP2 POP POP PUSH1 0x1 PUSH1 0x20 SHL DUP2 GT ISZERO PUSH2 0xBA2 JUMPI PUSH1 0x0 DUP1 REVERT JUMPDEST DUP3 ADD DUP4 PUSH1 0x20 DUP3 ADD GT ISZERO PUSH2 0xBB4 JUMPI PUSH1 0x0 DUP1 REVERT JUMPDEST DUP1 CALLDATALOAD SWAP1 PUSH1 0x20 ADD SWAP2 DUP5 PUSH1 0x1 DUP4 MUL DUP5 ADD GT PUSH1 0x1 PUSH1 0x20 SHL DUP4 GT OR ISZERO PUSH2 0xBD5 JUMPI PUSH1 0x0 DUP1 REVERT JUMPDEST SWAP2 SWAP1 DUP1 DUP1 PUSH1 0x1F ADD PUSH1 0x20 DUP1 SWAP2 DIV MUL PUSH1 0x20 ADD PUSH1 0x40 MLOAD SWAP1 DUP2 ADD PUSH1 0x40 MSTORE DUP1 SWAP4 SWAP3 SWAP2 SWAP1 DUP2 DUP2 MSTORE PUSH1 0x20 ADD DUP4 DUP4 DUP1 DUP3 DUP5 CALLDATACOPY PUSH1 0x0 SWAP3 ADD SWAP2 SWAP1 SWAP2 MSTORE POP SWAP3 SWAP6 POP POP DUP3 CALLDATALOAD SWAP4 POP POP POP PUSH1 0x20 ADD CALLDATALOAD PUSH2 0x2B26 JUMP JUMPDEST CALLVALUE DUP1 ISZERO PUSH2 0xC27 JUMPI PUSH1 0x0 DUP1 REVERT JUMPDEST POP PUSH2 0x25F PUSH1 0x4 DUP1 CALLDATASIZE SUB PUSH1 0x20 DUP2 LT ISZERO PUSH2 0xC3E JUMPI PUSH1 0x0 DUP1 REVERT JUMPDEST POP CALLDATALOAD PUSH2 0x2DB6 JUMP JUMPDEST CALLVALUE DUP1 ISZERO PUSH2 0xC51 JUMPI PUSH1 0x0 DUP1 REVERT JUMPDEST POP PUSH2 0x678 PUSH1 0x4 DUP1 CALLDATASIZE SUB PUSH1 0xC0 DUP2 LT ISZERO PUSH2 0xC68 JUMPI PUSH1 0x0 DUP1 REVERT JUMPDEST POP DUP1 CALLDATALOAD SWAP1 PUSH1 0x20 DUP2 ADD CALLDATALOAD SWAP1 PUSH1 0xFF PUSH1 0x40 DUP3 ADD CALLDATALOAD AND SWAP1 PUSH1 0x60 DUP2 ADD CALLDATALOAD SWAP1 PUSH1 0x80 DUP2 ADD CALLDATALOAD SWAP1 PUSH1 0xA0 ADD CALLDATALOAD PUSH2 0x2DEA JUMP JUMPDEST CALLVALUE DUP1 ISZERO PUSH2 0xC9C JUMPI PUSH1 0x0 DUP1 REVERT JUMPDEST POP PUSH2 0x25F PUSH2 0x2EC3 JUMP JUMPDEST CALLVALUE DUP1 ISZERO PUSH2 0xCB1 JUMPI PUSH1 0x0 DUP1 REVERT JUMPDEST POP PUSH2 0x2B2 PUSH1 0x4 DUP1 CALLDATASIZE SUB PUSH2 0x1A0 DUP2 LT ISZERO PUSH2 0xCC9 JUMPI PUSH1 0x0 DUP1 REVERT JUMPDEST POP DUP1 CALLDATALOAD SWAP1 PUSH1 0xFF PUSH1 0x20 DUP3 ADD CALLDATALOAD DUP2 AND SWAP2 PUSH1 0x40 DUP2 ADD CALLDATALOAD SWAP2 PUSH1 0x60 DUP3 ADD CALLDATALOAD SWAP2 PUSH1 0x80 DUP2 ADD CALLDATALOAD SWAP2 PUSH1 0xA0 DUP3 ADD CALLDATALOAD AND SWAP1 PUSH1 0xC0 DUP2 ADD CALLDATALOAD SWAP1 PUSH1 0xE0 DUP2 ADD CALLDATALOAD SWAP1 PUSH2 0x100 DUP2 ADD CALLDATALOAD SWAP1 PUSH2 0x120 DUP2 ADD CALLDATALOAD SWAP1 PUSH2 0x140 DUP2 ADD CALLDATALOAD SWAP1 PUSH1 0x1 PUSH1 0x1 PUSH1 0xA0 SHL SUB PUSH2 0x160 DUP3 ADD CALLDATALOAD AND SWAP1 PUSH2 0x180 ADD CALLDATALOAD PUSH2 0x2ED3 JUMP JUMPDEST PUSH1 0x8 SLOAD DUP2 JUMP JUMPDEST CALLER PUSH1 0x0 SWAP1 DUP2 MSTORE PUSH1 0xF PUSH1 0x20 MSTORE PUSH1 0x40 SWAP1 KECCAK256 SLOAD JUMPDEST SWAP1 JUMP JUMPDEST PUSH1 0x0 PUSH2 0xD4F PUSH2 0x27F6 JUMP JUMPDEST PUSH1 0x0 DUP2 DUP2 MSTORE PUSH1 0x12 PUSH1 0x20 SWAP1 DUP2 MSTORE PUSH1 0x40 DUP1 DUP4 KECCAK256 PUSH1 0x1 PUSH1 0x1 PUSH1 0xA0 SHL SUB DUP9 AND DUP5 MSTORE SWAP1 SWAP2 MSTORE SWAP1 KECCAK256 SLOAD SWAP1 SWAP2 POP DUP1 PUSH2 0xDBB JUMPI PUSH1 0x40 DUP1 MLOAD PUSH3 0x461BCD PUSH1 0xE5 SHL DUP2 MSTORE PUSH1 0x20 PUSH1 0x4 DUP3 ADD MSTORE PUSH1 0x11 PUSH1 0x24 DUP3 ADD MSTORE PUSH17 0x14995B185E595C881B9BDD08199BDD5B99 PUSH1 0x7A SHL PUSH1 0x44 DUP3 ADD MSTORE SWAP1 MLOAD SWAP1 DUP2 SWAP1 SUB PUSH1 0x64 ADD SWAP1 REVERT JUMPDEST PUSH1 0x0 DUP3 DUP2 MSTORE PUSH1 0x11 PUSH1 0x20 SWAP1 DUP2 MSTORE PUSH1 0x40 DUP1 DUP4 KECCAK256 DUP5 DUP5 MSTORE SWAP1 SWAP2 MSTORE SWAP1 KECCAK256 PUSH1 0xB ADD SLOAD PUSH2 0xE13 JUMPI PUSH1 0x40 MLOAD PUSH3 0x461BCD PUSH1 0xE5 SHL DUP2 MSTORE PUSH1 0x4 ADD DUP1 DUP1 PUSH1 0x20 ADD DUP3 DUP2 SUB DUP3 MSTORE PUSH1 0x30 DUP2 MSTORE PUSH1 0x20 ADD DUP1 PUSH2 0x35D4 PUSH1 0x30 SWAP2 CODECOPY PUSH1 0x40 ADD SWAP2 POP POP PUSH1 0x40 MLOAD DUP1 SWAP2 SUB SWAP1 REVERT JUMPDEST PUSH1 0x0 CALLVALUE GT PUSH2 0xE52 JUMPI PUSH1 0x40 MLOAD PUSH3 0x461BCD PUSH1 0xE5 SHL DUP2 MSTORE PUSH1 0x4 ADD DUP1 DUP1 PUSH1 0x20 ADD DUP3 DUP2 SUB DUP3 MSTORE PUSH1 0x27 DUP2 MSTORE PUSH1 0x20 ADD DUP1 PUSH2 0x3490 PUSH1 0x27 SWAP2 CODECOPY PUSH1 0x40 ADD SWAP2 POP POP PUSH1 0x40 MLOAD DUP1 SWAP2 SUB SWAP1 REVERT JUMPDEST NUMBER DUP4 GT PUSH2 0xE90 JUMPI PUSH1 0x40 MLOAD PUSH3 0x461BCD PUSH1 0xE5 SHL DUP2 MSTORE PUSH1 0x4 ADD DUP1 DUP1 PUSH1 0x20 ADD DUP3 DUP2 SUB DUP3 MSTORE PUSH1 0x2E DUP2 MSTORE PUSH1 0x20 ADD DUP1 PUSH2 0x3604 PUSH1 0x2E SWAP2 CODECOPY PUSH1 0x40 ADD SWAP2 POP POP PUSH1 0x40 MLOAD DUP1 SWAP2 SUB SWAP1 REVERT JUMPDEST CALLER PUSH1 0x0 SWAP1 DUP2 MSTORE PUSH1 0x13 PUSH1 0x20 SWAP1 DUP2 MSTORE PUSH1 0x40 DUP1 DUP4 KECCAK256 PUSH1 0x1 PUSH1 0x1 PUSH1 0xA0 SHL SUB DUP9 AND DUP5 MSTORE SWAP1 SWAP2 MSTORE SWAP1 KECCAK256 SLOAD PUSH2 0xEE0 JUMPI PUSH1 0x0 DUP3 DUP2 MSTORE PUSH1 0x11 PUSH1 0x20 SWAP1 DUP2 MSTORE PUSH1 0x40 DUP1 DUP4 KECCAK256 DUP5 DUP5 MSTORE SWAP1 SWAP2 MSTORE SWAP1 KECCAK256 PUSH1 0x6 ADD DUP1 SLOAD PUSH1 0x1 ADD SWAP1 SSTORE PUSH2 0xF42 JUMP JUMPDEST CALLER PUSH1 0x0 SWAP1 DUP2 MSTORE PUSH1 0x13 PUSH1 0x20 SWAP1 DUP2 MSTORE PUSH1 0x40 DUP1 DUP4 KECCAK256 PUSH1 0x1 PUSH1 0x1 PUSH1 0xA0 SHL SUB DUP9 AND DUP5 MSTORE SWAP1 SWAP2 MSTORE SWAP1 KECCAK256 SLOAD DUP4 LT ISZERO PUSH2 0xF42 JUMPI PUSH1 0x40 MLOAD PUSH3 0x461BCD PUSH1 0xE5 SHL DUP2 MSTORE PUSH1 0x4 ADD DUP1 DUP1 PUSH1 0x20 ADD DUP3 DUP2 SUB DUP3 MSTORE PUSH1 0x47 DUP2 MSTORE PUSH1 0x20 ADD DUP1 PUSH2 0x358D PUSH1 0x47 SWAP2 CODECOPY PUSH1 0x60 ADD SWAP2 POP POP PUSH1 0x40 MLOAD DUP1 SWAP2 SUB SWAP1 REVERT JUMPDEST CALLER PUSH1 0x0 SWAP1 DUP2 MSTORE PUSH1 0x13 PUSH1 0x20 SWAP1 DUP2 MSTORE PUSH1 0x40 DUP1 DUP4 KECCAK256 PUSH1 0x1 PUSH1 0x1 PUSH1 0xA0 SHL SUB DUP9 AND DUP5 MSTORE DUP3 MSTORE DUP1 DUP4 KECCAK256 DUP7 SWAP1 SSTORE DUP5 DUP4 MSTORE PUSH1 0x11 DUP3 MSTORE DUP1 DUP4 KECCAK256 DUP5 DUP5 MSTORE SWAP1 SWAP2 MSTORE SWAP1 KECCAK256 PUSH1 0x3 DUP2 ADD SLOAD PUSH1 0x6 SWAP1 SWAP2 ADD SLOAD GT ISZERO PUSH2 0xFD8 JUMPI PUSH1 0x40 DUP1 MLOAD PUSH3 0x461BCD PUSH1 0xE5 SHL DUP2 MSTORE PUSH1 0x20 PUSH1 0x4 DUP3 ADD MSTORE PUSH1 0x18 PUSH1 0x24 DUP3 ADD MSTORE PUSH32 0x4D6178207573657273206C696D69742076696F6C617465640000000000000000 PUSH1 0x44 DUP3 ADD MSTORE SWAP1 MLOAD SWAP1 DUP2 SWAP1 SUB PUSH1 0x64 ADD SWAP1 REVERT JUMPDEST PUSH1 0x0 DUP3 DUP2 MSTORE PUSH1 0x11 PUSH1 0x20 SWAP1 DUP2 MSTORE PUSH1 0x40 DUP1 DUP4 KECCAK256 DUP5 DUP5 MSTORE SWAP1 SWAP2 MSTORE SWAP1 KECCAK256 PUSH1 0x7 DUP2 ADD DUP1 SLOAD CALLVALUE ADD SWAP1 DUP2 SWAP1 SSTORE PUSH1 0x4 SWAP1 SWAP2 ADD SLOAD LT ISZERO PUSH2 0x1056 JUMPI PUSH1 0x40 DUP1 MLOAD PUSH3 0x461BCD PUSH1 0xE5 SHL DUP2 MSTORE PUSH1 0x20 PUSH1 0x4 DUP3 ADD MSTORE PUSH1 0x18 PUSH1 0x24 DUP3 ADD MSTORE PUSH32 0x4D617820636F696E73206C696D69742076696F6C617465640000000000000000 PUSH1 0x44 DUP3 ADD MSTORE SWAP1 MLOAD SWAP1 DUP2 SWAP1 SUB PUSH1 0x64 ADD SWAP1 REVERT JUMPDEST CALLER PUSH1 0x0 DUP2 DUP2 MSTORE PUSH1 0x13 PUSH1 0x20 SWAP1 DUP2 MSTORE PUSH1 0x40 DUP1 DUP4 KECCAK256 PUSH1 0x1 PUSH1 0x1 PUSH1 0xA0 SHL SUB DUP10 AND DUP1 DUP6 MSTORE SWAP1 DUP4 MSTORE SWAP3 DUP2 SWAP1 KECCAK256 PUSH1 0x1 ADD DUP1 SLOAD CALLVALUE SWAP1 DUP2 ADD SWAP1 SWAP2 SSTORE DUP2 MLOAD SWAP1 DUP2 MSTORE SWAP1 MLOAD PUSH32 0x3BC57F469AD6D10D7723EA226CD22BD2B9E527DEF2B529F6AB44645A16689582 SWAP3 SWAP2 DUP2 SWAP1 SUB SWAP1 SWAP2 ADD SWAP1 LOG3 POP POP POP POP JUMP JUMPDEST PUSH1 0x2 SLOAD DUP2 JUMP JUMPDEST PUSH1 0x5 SLOAD DUP2 JUMP JUMPDEST PUSH1 0xB SLOAD DUP2 JUMP JUMPDEST PUSH1 0x0 DUP3 DUP3 LT PUSH2 0x10E0 JUMPI PUSH1 0x0 DUP1 REVERT JUMPDEST PUSH1 0x0 PUSH1 0x1 SLOAD DUP5 DUP2 PUSH2 0x10ED JUMPI INVALID JUMPDEST DIV PUSH1 0x1 ADD SWAP1 POP PUSH1 0x0 DUP2 PUSH1 0x9 SLOAD DUP2 PUSH2 0x1100 JUMPI INVALID JUMPDEST DIV SWAP1 POP PUSH1 0x1 DUP5 ISZERO PUSH2 0x1110 JUMPI POP DUP4 DUP6 SUB JUMPDEST PUSH1 0xA SLOAD DUP2 DUP4 MUL SWAP1 DUP2 LT ISZERO PUSH2 0x1123 JUMPI POP PUSH1 0xA SLOAD JUMPDEST SWAP7 SWAP6 POP POP POP POP POP POP JUMP JUMPDEST PUSH1 0x1 SLOAD DUP2 JUMP JUMPDEST PUSH1 0x0 CALLVALUE GT PUSH2 0x1140 JUMPI PUSH1 0x0 DUP1 REVERT JUMPDEST PUSH1 0x1 PUSH1 0x1 PUSH1 0xA0 SHL SUB DUP3 AND CALLER EQ ISZERO PUSH2 0x1156 JUMPI PUSH1 0x0 DUP1 REVERT JUMPDEST PUSH2 0x115E PUSH2 0x32A7 JUMP JUMPDEST PUSH1 0x40 DUP1 MLOAD CALLER PUSH1 0x60 SWAP1 DUP2 SHL PUSH1 0x20 DUP1 DUP5 ADD SWAP2 SWAP1 SWAP2 MSTORE SWAP1 DUP7 SWAP1 SHL PUSH12 0xFFFFFFFFFFFFFFFFFFFFFFFF NOT AND PUSH1 0x34 DUP4 ADD MSTORE TIMESTAMP PUSH1 0x48 DUP1 DUP5 ADD SWAP2 SWAP1 SWAP2 MSTORE DUP4 MLOAD DUP1 DUP5 SUB SWAP1 SWAP2 ADD DUP2 MSTORE PUSH1 0x68 SWAP1 SWAP3 ADD DUP4 MSTORE DUP2 MLOAD SWAP2 DUP2 ADD SWAP2 SWAP1 SWAP2 KECCAK256 DUP1 DUP5 MSTORE PUSH1 0x0 SWAP1 DUP2 MSTORE PUSH1 0xE SWAP1 SWAP2 MSTORE KECCAK256 PUSH1 0x5 ADD SLOAD PUSH1 0xFF AND ISZERO PUSH2 0x1214 JUMPI PUSH1 0x40 DUP1 MLOAD PUSH3 0x461BCD PUSH1 0xE5 SHL DUP2 MSTORE PUSH1 0x20 PUSH1 0x4 DUP3 ADD MSTORE PUSH1 0x1A PUSH1 0x24 DUP3 ADD MSTORE PUSH32 0x4368616E6E656C20496420616C7265616479206578697374732E000000000000 PUSH1 0x44 DUP3 ADD MSTORE SWAP1 MLOAD SWAP1 DUP2 SWAP1 SUB PUSH1 0x64 ADD SWAP1 REVERT JUMPDEST DUP1 MLOAD CALLER PUSH1 0x0 DUP2 DUP2 MSTORE PUSH1 0xD PUSH1 0x20 SWAP1 DUP2 MSTORE PUSH1 0x40 DUP1 DUP4 KECCAK256 PUSH1 0xF DUP1 DUP5 MSTORE DUP3 DUP6 KECCAK256 DUP1 SLOAD DUP7 MSTORE SWAP2 DUP5 MSTORE DUP3 DUP6 KECCAK256 SWAP7 SWAP1 SWAP7 SSTORE DUP5 DUP5 MSTORE SWAP5 DUP3 MSTORE DUP5 SLOAD PUSH1 0x1 SWAP1 DUP2 ADD SWAP1 SWAP6 SSTORE CALLVALUE PUSH1 0x80 DUP8 ADD DUP2 DUP2 MSTORE DUP4 DUP9 ADD DUP7 DUP2 MSTORE PUSH1 0x1 PUSH1 0x1 PUSH1 0xA0 SHL SUB DUP12 DUP2 AND DUP6 DUP12 ADD DUP2 DUP2 MSTORE PUSH1 0xA0 DUP13 ADD DUP12 DUP2 MSTORE TIMESTAMP PUSH3 0x15180 DUP16 MUL ADD PUSH1 0x60 DUP15 ADD SWAP1 DUP2 MSTORE DUP14 MLOAD DUP12 MSTORE PUSH1 0xE DUP11 MSTORE SWAP10 DUP9 SWAP1 KECCAK256 DUP14 MLOAD DUP1 DUP3 SSTORE SWAP6 MLOAD SWAP13 DUP2 ADD DUP1 SLOAD SWAP14 DUP7 AND PUSH1 0x1 PUSH1 0x1 PUSH1 0xA0 SHL SUB NOT SWAP15 DUP16 AND OR SWAP1 SSTORE SWAP2 MLOAD PUSH1 0x2 DUP4 ADD DUP1 SLOAD SWAP2 SWAP1 SWAP6 AND SWAP13 AND SWAP12 SWAP1 SWAP12 OR SWAP1 SWAP3 SSTORE SWAP7 MLOAD PUSH1 0x3 DUP3 ADD SSTORE SWAP2 MLOAD PUSH1 0x4 DUP4 ADD SSTORE SWAP7 MLOAD PUSH1 0x5 SWAP1 SWAP2 ADD DUP1 SLOAD SWAP2 ISZERO ISZERO PUSH1 0xFF NOT SWAP1 SWAP3 AND SWAP2 SWAP1 SWAP2 OR SWAP1 SSTORE DUP2 MLOAD SWAP6 DUP7 MSTORE SWAP2 DUP6 ADD SWAP2 SWAP1 SWAP2 MSTORE DUP1 MLOAD SWAP2 SWAP4 PUSH32 0x448D27F1FE12F92A2070111296E68FD6EF0A01C0E05BF5819EDA0DBCF267BF3D SWAP3 SWAP1 DUP2 SWAP1 SUB SWAP1 SWAP2 ADD SWAP1 LOG3 POP POP POP JUMP JUMPDEST PUSH1 0x11 PUSH1 0x20 SWAP1 DUP2 MSTORE PUSH1 0x0 SWAP3 DUP4 MSTORE PUSH1 0x40 DUP1 DUP5 KECCAK256 DUP3 MSTORE SWAP2 DUP4 MSTORE SWAP2 DUP2 SWAP1 KECCAK256 DUP1 SLOAD DUP3 MLOAD PUSH1 0x1F PUSH1 0x2 PUSH1 0x0 NOT PUSH2 0x100 PUSH1 0x1 DUP7 AND ISZERO MUL ADD SWAP1 SWAP4 AND SWAP3 SWAP1 SWAP3 DIV SWAP2 DUP3 ADD DUP6 SWAP1 DIV DUP6 MUL DUP2 ADD DUP6 ADD SWAP1 SWAP4 MSTORE DUP1 DUP4 MSTORE SWAP1 SWAP3 DUP4 SWAP2 SWAP1 DUP4 ADD DUP3 DUP3 DUP1 ISZERO PUSH2 0x13C6 JUMPI DUP1 PUSH1 0x1F LT PUSH2 0x139B JUMPI PUSH2 0x100 DUP1 DUP4 SLOAD DIV MUL DUP4 MSTORE SWAP2 PUSH1 0x20 ADD SWAP2 PUSH2 0x13C6 JUMP JUMPDEST DUP3 ADD SWAP2 SWAP1 PUSH1 0x0 MSTORE PUSH1 0x20 PUSH1 0x0 KECCAK256 SWAP1 JUMPDEST DUP2 SLOAD DUP2 MSTORE SWAP1 PUSH1 0x1 ADD SWAP1 PUSH1 0x20 ADD DUP1 DUP4 GT PUSH2 0x13A9 JUMPI DUP3 SWAP1 SUB PUSH1 0x1F AND DUP3 ADD SWAP2 JUMPDEST POP POP POP POP PUSH1 0x1 DUP4 DUP2 ADD SLOAD PUSH1 0x2 DUP1 DUP7 ADD DUP1 SLOAD PUSH1 0x40 DUP1 MLOAD PUSH1 0x20 PUSH2 0x100 SWAP8 DUP5 AND ISZERO SWAP8 SWAP1 SWAP8 MUL PUSH1 0x0 NOT ADD SWAP1 SWAP3 AND SWAP4 SWAP1 SWAP4 DIV PUSH1 0x1F DUP2 ADD DUP7 SWAP1 DIV DUP7 MUL DUP3 ADD DUP7 ADD SWAP1 SWAP4 MSTORE DUP3 DUP2 MSTORE SWAP6 SWAP7 PUSH1 0x1 PUSH1 0x1 PUSH1 0xA0 SHL SUB SWAP1 SWAP4 AND SWAP6 SWAP3 SWAP5 POP SWAP2 SWAP3 DUP4 ADD DUP3 DUP3 DUP1 ISZERO PUSH2 0x146A JUMPI DUP1 PUSH1 0x1F LT PUSH2 0x143F JUMPI PUSH2 0x100 DUP1 DUP4 SLOAD DIV MUL DUP4 MSTORE SWAP2 PUSH1 0x20 ADD SWAP2 PUSH2 0x146A JUMP JUMPDEST DUP3 ADD SWAP2 SWAP1 PUSH1 0x0 MSTORE PUSH1 0x20 PUSH1 0x0 KECCAK256 SWAP1 JUMPDEST DUP2 SLOAD DUP2 MSTORE SWAP1 PUSH1 0x1 ADD SWAP1 PUSH1 0x20 ADD DUP1 DUP4 GT PUSH2 0x144D JUMPI DUP3 SWAP1 SUB PUSH1 0x1F AND DUP3 ADD SWAP2 JUMPDEST POP POP POP POP POP SWAP1 DUP1 PUSH1 0x3 ADD SLOAD SWAP1 DUP1 PUSH1 0x4 ADD SLOAD SWAP1 DUP1 PUSH1 0x5 ADD SLOAD SWAP1 DUP1 PUSH1 0x6 ADD SLOAD SWAP1 DUP1 PUSH1 0x7 ADD SLOAD SWAP1 DUP1 PUSH1 0x8 ADD SLOAD SWAP1 DUP1 PUSH1 0x9 ADD SLOAD SWAP1 DUP1 PUSH1 0xA ADD SLOAD SWAP1 DUP1 PUSH1 0xB ADD SLOAD SWAP1 POP DUP13 JUMP JUMPDEST PUSH1 0x0 PUSH2 0x14C6 PUSH1 0x0 SLOAD PUSH2 0x14BA PUSH2 0x27F6 JUMP JUMPDEST SWAP1 PUSH4 0xFFFFFFFF PUSH2 0x3233 AND JUMP JUMPDEST SWAP1 POP SWAP1 JUMP JUMPDEST PUSH1 0x0 PUSH2 0x14C6 PUSH1 0x2 SLOAD PUSH2 0x14DB PUSH2 0x14AA JUMP JUMPDEST SWAP1 PUSH4 0xFFFFFFFF PUSH2 0x3253 AND JUMP JUMPDEST CALLER PUSH1 0x0 SWAP1 DUP2 MSTORE PUSH1 0xD PUSH1 0x20 SWAP1 DUP2 MSTORE PUSH1 0x40 DUP1 DUP4 KECCAK256 SWAP4 DUP4 MSTORE SWAP3 SWAP1 MSTORE KECCAK256 SLOAD SWAP1 JUMP JUMPDEST PUSH1 0x7 SLOAD DUP2 JUMP JUMPDEST PUSH1 0x0 DUP1 SLOAD PUSH2 0x151F SWAP1 DUP4 SWAP1 PUSH4 0xFFFFFFFF PUSH2 0x3265 AND JUMP JUMPDEST PUSH1 0x1 ADD SWAP3 SWAP2 POP POP JUMP JUMPDEST PUSH1 0x40 DUP1 MLOAD PUSH1 0x20 DUP1 DUP3 ADD DUP7 SWAP1 MSTORE DUP2 DUP4 ADD DUP6 SWAP1 MSTORE PUSH1 0x60 DUP1 DUP4 ADD DUP6 SWAP1 MSTORE DUP4 MLOAD DUP1 DUP5 SUB SWAP1 SWAP2 ADD DUP2 MSTORE PUSH1 0x80 SWAP1 SWAP3 ADD SWAP1 SWAP3 MSTORE DUP1 MLOAD SWAP2 ADD KECCAK256 DUP8 DUP2 EQ PUSH2 0x1597 JUMPI PUSH1 0x40 MLOAD PUSH3 0x461BCD PUSH1 0xE5 SHL DUP2 MSTORE PUSH1 0x4 ADD DUP1 DUP1 PUSH1 0x20 ADD DUP3 DUP2 SUB DUP3 MSTORE PUSH1 0x34 DUP2 MSTORE PUSH1 0x20 ADD DUP1 PUSH2 0x350A PUSH1 0x34 SWAP2 CODECOPY PUSH1 0x40 ADD SWAP2 POP POP PUSH1 0x40 MLOAD DUP1 SWAP2 SUB SWAP1 REVERT JUMPDEST PUSH1 0x40 DUP1 MLOAD PUSH1 0x0 DUP1 DUP3 MSTORE PUSH1 0x20 DUP1 DUP4 ADD DUP1 DUP6 MSTORE DUP13 SWAP1 MSTORE PUSH1 0xFF DUP12 AND DUP4 DUP6 ADD MSTORE PUSH1 0x60 DUP4 ADD DUP11 SWAP1 MSTORE PUSH1 0x80 DUP4 ADD DUP10 SWAP1 MSTORE SWAP3 MLOAD SWAP1 SWAP3 PUSH1 0x1 SWAP3 PUSH1 0xA0 DUP1 DUP3 ADD SWAP4 PUSH1 0x1F NOT DUP2 ADD SWAP3 DUP2 SWAP1 SUB SWAP1 SWAP2 ADD SWAP1 DUP6 GAS STATICCALL ISZERO DUP1 ISZERO PUSH2 0x15EF JUMPI RETURNDATASIZE PUSH1 0x0 DUP1 RETURNDATACOPY RETURNDATASIZE PUSH1 0x0 REVERT JUMPDEST POP POP PUSH1 0x40 DUP1 MLOAD PUSH1 0x1F NOT ADD MLOAD PUSH1 0x0 DUP9 DUP2 MSTORE PUSH1 0xE PUSH1 0x20 MSTORE SWAP2 SWAP1 SWAP2 KECCAK256 PUSH1 0x1 ADD SLOAD SWAP1 SWAP3 POP PUSH1 0x1 PUSH1 0x1 PUSH1 0xA0 SHL SUB DUP1 DUP5 AND SWAP2 AND EQ SWAP1 POP PUSH2 0x165A JUMPI PUSH1 0x40 MLOAD PUSH3 0x461BCD PUSH1 0xE5 SHL DUP2 MSTORE PUSH1 0x4 ADD DUP1 DUP1 PUSH1 0x20 ADD DUP3 DUP2 SUB DUP3 MSTORE PUSH1 0x22 DUP2 MSTORE PUSH1 0x20 ADD DUP1 PUSH2 0x33C1 PUSH1 0x22 SWAP2 CODECOPY PUSH1 0x40 ADD SWAP2 POP POP PUSH1 0x40 MLOAD DUP1 SWAP2 SUB SWAP1 REVERT JUMPDEST PUSH1 0x0 DUP6 DUP2 MSTORE PUSH1 0xC PUSH1 0x20 SWAP1 DUP2 MSTORE PUSH1 0x40 DUP1 DUP4 KECCAK256 DUP8 DUP5 MSTORE SWAP1 SWAP2 MSTORE SWAP1 KECCAK256 SLOAD DUP4 GT PUSH2 0x16B1 JUMPI PUSH1 0x40 MLOAD PUSH3 0x461BCD PUSH1 0xE5 SHL DUP2 MSTORE PUSH1 0x4 ADD DUP1 DUP1 PUSH1 0x20 ADD DUP3 DUP2 SUB DUP3 MSTORE PUSH1 0x5A DUP2 MSTORE PUSH1 0x20 ADD DUP1 PUSH2 0x340E PUSH1 0x5A SWAP2 CODECOPY PUSH1 0x60 ADD SWAP2 POP POP PUSH1 0x40 MLOAD DUP1 SWAP2 SUB SWAP1 REVERT JUMPDEST PUSH1 0x0 DUP6 DUP2 MSTORE PUSH1 0xC PUSH1 0x20 SWAP1 DUP2 MSTORE PUSH1 0x40 DUP1 DUP4 KECCAK256 DUP8 DUP5 MSTORE DUP3 MSTORE DUP1 DUP4 KECCAK256 DUP1 SLOAD SWAP1 DUP8 SWAP1 SSTORE DUP9 DUP5 MSTORE PUSH1 0xE SWAP1 SWAP3 MSTORE SWAP1 SWAP2 KECCAK256 PUSH1 0x4 ADD SLOAD SWAP1 DUP5 SUB SWAP1 DUP2 GT ISZERO PUSH2 0x172E JUMPI PUSH1 0x40 DUP1 MLOAD PUSH3 0x461BCD PUSH1 0xE5 SHL DUP2 MSTORE PUSH1 0x20 PUSH1 0x4 DUP3 ADD MSTORE PUSH1 0x14 PUSH1 0x24 DUP3 ADD MSTORE PUSH20 0x496E73756666696369656E742062616C616E6365 PUSH1 0x60 SHL PUSH1 0x44 DUP3 ADD MSTORE SWAP1 MLOAD SWAP1 DUP2 SWAP1 SUB PUSH1 0x64 ADD SWAP1 REVERT JUMPDEST PUSH1 0x0 DUP7 DUP2 MSTORE PUSH1 0xE PUSH1 0x20 MSTORE PUSH1 0x40 DUP1 DUP3 KECCAK256 PUSH1 0x4 DUP2 ADD DUP1 SLOAD DUP6 SWAP1 SUB SWAP1 SSTORE PUSH1 0x2 ADD SLOAD SWAP1 MLOAD PUSH1 0x1 PUSH1 0x1 PUSH1 0xA0 SHL SUB SWAP1 SWAP2 AND SWAP2 DUP3 SWAP2 DUP5 ISZERO PUSH2 0x8FC MUL SWAP2 DUP6 SWAP2 SWAP1 DUP2 DUP2 DUP2 DUP6 DUP9 DUP9 CALL SWAP4 POP POP POP POP ISZERO DUP1 ISZERO PUSH2 0x1783 JUMPI RETURNDATASIZE PUSH1 0x0 DUP1 RETURNDATACOPY RETURNDATASIZE PUSH1 0x0 REVERT JUMPDEST POP DUP1 PUSH1 0x1 PUSH1 0x1 PUSH1 0xA0 SHL SUB AND DUP4 PUSH1 0x1 PUSH1 0x1 PUSH1 0xA0 SHL SUB AND DUP9 PUSH32 0x2043CE36A2EFD68E4AB83FF69DDAF208D5DB9C1BEBBC9D7323680508DF43E88E DUP6 PUSH1 0x40 MLOAD DUP1 DUP3 DUP2 MSTORE PUSH1 0x20 ADD SWAP2 POP POP PUSH1 0x40 MLOAD DUP1 SWAP2 SUB SWAP1 LOG4 POP POP POP POP POP POP POP POP POP POP POP JUMP JUMPDEST PUSH1 0x10 PUSH1 0x20 MSTORE PUSH1 0x0 SWAP1 DUP2 MSTORE PUSH1 0x40 SWAP1 KECCAK256 SLOAD DUP2 JUMP JUMPDEST PUSH1 0x0 DUP2 DUP2 MSTORE PUSH1 0xE PUSH1 0x20 MSTORE PUSH1 0x40 SWAP1 KECCAK256 PUSH1 0x4 ADD SLOAD PUSH2 0x1849 JUMPI PUSH1 0x40 DUP1 MLOAD PUSH3 0x461BCD PUSH1 0xE5 SHL DUP2 MSTORE PUSH1 0x20 PUSH1 0x4 DUP3 ADD MSTORE PUSH1 0x14 PUSH1 0x24 DUP3 ADD MSTORE PUSH20 0x496E73756666696369656E742062616C616E6365 PUSH1 0x60 SHL PUSH1 0x44 DUP3 ADD MSTORE SWAP1 MLOAD SWAP1 DUP2 SWAP1 SUB PUSH1 0x64 ADD SWAP1 REVERT JUMPDEST PUSH1 0x0 DUP2 DUP2 MSTORE PUSH1 0xE PUSH1 0x20 MSTORE PUSH1 0x40 SWAP1 KECCAK256 PUSH1 0x1 ADD SLOAD PUSH1 0x1 PUSH1 0x1 PUSH1 0xA0 SHL SUB AND CALLER EQ PUSH2 0x18A1 JUMPI PUSH1 0x40 MLOAD PUSH3 0x461BCD PUSH1 0xE5 SHL DUP2 MSTORE PUSH1 0x4 ADD DUP1 DUP1 PUSH1 0x20 ADD DUP3 DUP2 SUB DUP3 MSTORE PUSH1 0x29 DUP2 MSTORE PUSH1 0x20 ADD DUP1 PUSH2 0x3398 PUSH1 0x29 SWAP2 CODECOPY PUSH1 0x40 ADD SWAP2 POP POP PUSH1 0x40 MLOAD DUP1 SWAP2 SUB SWAP1 REVERT JUMPDEST PUSH1 0x0 DUP2 DUP2 MSTORE PUSH1 0xE PUSH1 0x20 MSTORE PUSH1 0x40 SWAP1 KECCAK256 PUSH1 0x3 ADD SLOAD TIMESTAMP GT PUSH2 0x18FA JUMPI PUSH1 0x40 DUP1 MLOAD PUSH3 0x461BCD PUSH1 0xE5 SHL DUP2 MSTORE PUSH1 0x20 PUSH1 0x4 DUP3 ADD MSTORE PUSH1 0x11 PUSH1 0x24 DUP3 ADD MSTORE PUSH17 0x10985B185B98D9481A5CC81B1BD8DAD959 PUSH1 0x7A SHL PUSH1 0x44 DUP3 ADD MSTORE SWAP1 MLOAD SWAP1 DUP2 SWAP1 SUB PUSH1 0x64 ADD SWAP1 REVERT JUMPDEST PUSH1 0x0 DUP2 DUP2 MSTORE PUSH1 0xE PUSH1 0x20 MSTORE PUSH1 0x40 DUP1 DUP3 KECCAK256 PUSH1 0x4 DUP2 ADD DUP1 SLOAD SWAP1 DUP5 SWAP1 SSTORE PUSH1 0x5 SWAP1 SWAP2 ADD DUP1 SLOAD PUSH1 0xFF NOT AND SWAP1 SSTORE SWAP1 MLOAD SWAP1 SWAP2 CALLER SWAP2 DUP4 ISZERO PUSH2 0x8FC MUL SWAP2 DUP5 SWAP2 SWAP1 DUP2 DUP2 DUP2 DUP6 DUP9 DUP9 CALL SWAP4 POP POP POP POP ISZERO DUP1 ISZERO PUSH2 0x194D JUMPI RETURNDATASIZE PUSH1 0x0 DUP1 RETURNDATACOPY RETURNDATASIZE PUSH1 0x0 REVERT JUMPDEST POP PUSH1 0x40 DUP1 MLOAD DUP4 DUP2 MSTORE PUSH1 0x20 DUP2 ADD DUP4 SWAP1 MSTORE DUP2 MLOAD CALLER SWAP3 PUSH32 0x180EA96FA778B12BB1FC654D1945F3A13B23F0D7C6E600F2CBEE2AB553D7ED18 SWAP3 DUP3 SWAP1 SUB ADD SWAP1 LOG2 POP POP JUMP JUMPDEST PUSH1 0x0 SLOAD DUP2 JUMP JUMPDEST PUSH1 0x40 DUP1 MLOAD PUSH12 0xFFFFFFFFFFFFFFFFFFFFFFFF NOT PUSH1 0x60 DUP6 SWAP1 SHL AND PUSH1 0x20 DUP1 DUP4 ADD SWAP2 SWAP1 SWAP2 MSTORE PUSH1 0x34 DUP3 ADD DUP8 SWAP1 MSTORE PUSH1 0x54 DUP3 ADD DUP5 SWAP1 MSTORE PUSH1 0x74 DUP1 DUP4 ADD DUP8 SWAP1 MSTORE DUP4 MLOAD DUP1 DUP5 SUB SWAP1 SWAP2 ADD DUP2 MSTORE PUSH1 0x94 SWAP1 SWAP3 ADD SWAP1 SWAP3 MSTORE DUP1 MLOAD SWAP2 ADD KECCAK256 PUSH1 0x0 SWAP1 DUP10 DUP2 EQ PUSH2 0x1A21 JUMPI PUSH1 0x40 MLOAD PUSH3 0x461BCD PUSH1 0xE5 SHL DUP2 MSTORE PUSH1 0x4 ADD DUP1 DUP1 PUSH1 0x20 ADD DUP3 DUP2 SUB DUP3 MSTORE PUSH1 0x34 DUP2 MSTORE PUSH1 0x20 ADD DUP1 PUSH2 0x350A PUSH1 0x34 SWAP2 CODECOPY PUSH1 0x40 ADD SWAP2 POP POP PUSH1 0x40 MLOAD DUP1 SWAP2 SUB SWAP1 REVERT JUMPDEST PUSH1 0x40 DUP1 MLOAD PUSH1 0x0 DUP2 MSTORE PUSH1 0x20 DUP1 DUP3 ADD DUP1 DUP5 MSTORE DUP14 SWAP1 MSTORE PUSH1 0xFF DUP13 AND DUP3 DUP5 ADD MSTORE PUSH1 0x60 DUP3 ADD DUP12 SWAP1 MSTORE PUSH1 0x80 DUP3 ADD DUP11 SWAP1 MSTORE SWAP2 MLOAD PUSH1 0x1 SWAP3 PUSH1 0xA0 DUP1 DUP5 ADD SWAP4 SWAP2 SWAP3 PUSH1 0x1F NOT DUP2 ADD SWAP3 DUP2 SWAP1 SUB SWAP1 SWAP2 ADD SWAP1 DUP6 GAS STATICCALL ISZERO DUP1 ISZERO PUSH2 0x1A78 JUMPI RETURNDATASIZE PUSH1 0x0 DUP1 RETURNDATACOPY RETURNDATASIZE PUSH1 0x0 REVERT JUMPDEST POP POP PUSH1 0x40 MLOAD PUSH1 0x1F NOT ADD MLOAD SWAP12 SWAP11 POP POP POP POP POP POP POP POP POP POP POP JUMP JUMPDEST PUSH1 0x14 PUSH1 0x20 SWAP1 DUP2 MSTORE PUSH1 0x0 SWAP5 DUP6 MSTORE PUSH1 0x40 DUP1 DUP7 KECCAK256 DUP3 MSTORE SWAP4 DUP6 MSTORE DUP4 DUP6 KECCAK256 DUP2 MSTORE SWAP2 DUP5 MSTORE DUP3 DUP5 KECCAK256 SWAP1 SWAP2 MSTORE DUP3 MSTORE SWAP1 KECCAK256 SLOAD DUP2 JUMP JUMPDEST PUSH1 0x1 DUP9 GT ISZERO PUSH2 0x1B50 JUMPI PUSH2 0x1ACE PUSH2 0x2EC3 JUMP JUMPDEST NUMBER LT PUSH2 0x1B0B JUMPI PUSH1 0x40 MLOAD PUSH3 0x461BCD PUSH1 0xE5 SHL DUP2 MSTORE PUSH1 0x4 ADD DUP1 DUP1 PUSH1 0x20 ADD DUP3 DUP2 SUB DUP3 MSTORE PUSH1 0x23 DUP2 MSTORE PUSH1 0x20 ADD DUP1 PUSH2 0x3375 PUSH1 0x23 SWAP2 CODECOPY PUSH1 0x40 ADD SWAP2 POP POP PUSH1 0x40 MLOAD DUP1 SWAP2 SUB SWAP1 REVERT JUMPDEST PUSH2 0x1B13 PUSH2 0x27F6 JUMP JUMPDEST DUP9 GT PUSH2 0x1B50 JUMPI PUSH1 0x40 MLOAD PUSH3 0x461BCD PUSH1 0xE5 SHL DUP2 MSTORE PUSH1 0x4 ADD DUP1 DUP1 PUSH1 0x20 ADD DUP3 DUP2 SUB DUP3 MSTORE PUSH1 0x2B DUP2 MSTORE PUSH1 0x20 ADD DUP1 PUSH2 0x33E3 PUSH1 0x2B SWAP2 CODECOPY PUSH1 0x40 ADD SWAP2 POP POP PUSH1 0x40 MLOAD DUP1 SWAP2 SUB SWAP1 REVERT JUMPDEST PUSH1 0x0 DUP5 GT PUSH2 0x1B8F JUMPI PUSH1 0x40 MLOAD PUSH3 0x461BCD PUSH1 0xE5 SHL DUP2 MSTORE PUSH1 0x4 ADD DUP1 DUP1 PUSH1 0x20 ADD DUP3 DUP2 SUB DUP3 MSTORE PUSH1 0x21 DUP2 MSTORE PUSH1 0x20 ADD DUP1 PUSH2 0x34E9 PUSH1 0x21 SWAP2 CODECOPY PUSH1 0x40 ADD SWAP2 POP POP PUSH1 0x40 MLOAD DUP1 SWAP2 SUB SWAP1 REVERT JUMPDEST PUSH1 0x0 DUP4 GT PUSH2 0x1BCE JUMPI PUSH1 0x40 MLOAD PUSH3 0x461BCD PUSH1 0xE5 SHL DUP2 MSTORE PUSH1 0x4 ADD DUP1 DUP1 PUSH1 0x20 ADD DUP3 DUP2 SUB DUP3 MSTORE PUSH1 0x21 DUP2 MSTORE PUSH1 0x20 ADD DUP1 PUSH2 0x3632 PUSH1 0x21 SWAP2 CODECOPY PUSH1 0x40 ADD SWAP2 POP POP PUSH1 0x40 MLOAD DUP1 SWAP2 SUB SWAP1 REVERT JUMPDEST PUSH1 0x0 DUP3 GT PUSH2 0x1C0D JUMPI PUSH1 0x40 MLOAD PUSH3 0x461BCD PUSH1 0xE5 SHL DUP2 MSTORE PUSH1 0x4 ADD DUP1 DUP1 PUSH1 0x20 ADD DUP3 DUP2 SUB DUP3 MSTORE PUSH1 0x28 DUP2 MSTORE PUSH1 0x20 ADD DUP1 PUSH2 0x3468 PUSH1 0x28 SWAP2 CODECOPY PUSH1 0x40 ADD SWAP2 POP POP PUSH1 0x40 MLOAD DUP1 SWAP2 SUB SWAP1 REVERT JUMPDEST PUSH1 0x0 DUP2 GT PUSH2 0x1C4C JUMPI PUSH1 0x40 MLOAD PUSH3 0x461BCD PUSH1 0xE5 SHL DUP2 MSTORE PUSH1 0x4 ADD DUP1 DUP1 PUSH1 0x20 ADD DUP3 DUP2 SUB DUP3 MSTORE PUSH1 0x28 DUP2 MSTORE PUSH1 0x20 ADD DUP1 PUSH2 0x353E PUSH1 0x28 SWAP2 CODECOPY PUSH1 0x40 ADD SWAP2 POP POP PUSH1 0x40 MLOAD DUP1 SWAP2 SUB SWAP1 REVERT JUMPDEST PUSH2 0x3E8 DUP6 LT PUSH2 0x1CA2 JUMPI PUSH1 0x40 DUP1 MLOAD PUSH3 0x461BCD PUSH1 0xE5 SHL DUP2 MSTORE PUSH1 0x20 PUSH1 0x4 DUP3 ADD MSTORE PUSH1 0x1D PUSH1 0x24 DUP3 ADD MSTORE PUSH32 0x4665652073686F756C64206265206C6F776572207468616E2031303030000000 PUSH1 0x44 DUP3 ADD MSTORE SWAP1 MLOAD SWAP1 DUP2 SWAP1 SUB PUSH1 0x64 ADD SWAP1 REVERT JUMPDEST PUSH1 0x0 PUSH2 0x1CAF DUP6 DUP6 DUP6 PUSH2 0x23F1 JUMP JUMPDEST SWAP1 POP CALLVALUE DUP2 GT ISZERO PUSH2 0x1D06 JUMPI PUSH1 0x40 DUP1 MLOAD PUSH3 0x461BCD PUSH1 0xE5 SHL DUP2 MSTORE PUSH1 0x20 PUSH1 0x4 DUP3 ADD MSTORE PUSH1 0x17 PUSH1 0x24 DUP3 ADD MSTORE PUSH32 0x496E76616C696420726571756972656420616D6F756E74000000000000000000 PUSH1 0x44 DUP3 ADD MSTORE SWAP1 MLOAD SWAP1 DUP2 SWAP1 SUB PUSH1 0x64 ADD SWAP1 REVERT JUMPDEST PUSH1 0x0 DUP10 DUP2 MSTORE PUSH1 0x12 PUSH1 0x20 SWAP1 DUP2 MSTORE PUSH1 0x40 DUP1 DUP4 KECCAK256 CALLER DUP5 MSTORE SWAP1 SWAP2 MSTORE SWAP1 KECCAK256 SLOAD ISZERO PUSH2 0x1D5C JUMPI PUSH1 0x40 MLOAD PUSH3 0x461BCD PUSH1 0xE5 SHL DUP2 MSTORE PUSH1 0x4 ADD DUP1 DUP1 PUSH1 0x20 ADD DUP3 DUP2 SUB DUP3 MSTORE PUSH1 0x27 DUP2 MSTORE PUSH1 0x20 ADD DUP1 PUSH2 0x3566 PUSH1 0x27 SWAP2 CODECOPY PUSH1 0x40 ADD SWAP2 POP POP PUSH1 0x40 MLOAD DUP1 SWAP2 SUB SWAP1 REVERT JUMPDEST PUSH1 0x0 DUP10 DUP2 MSTORE PUSH1 0x10 PUSH1 0x20 MSTORE PUSH1 0x40 SWAP1 KECCAK256 SLOAD PUSH1 0x5 SLOAD DUP2 LT PUSH2 0x20D4 JUMPI PUSH1 0x0 DUP1 PUSH1 0x1 JUMPDEST DUP4 DUP2 GT PUSH2 0x1DDD JUMPI PUSH1 0x0 DUP14 DUP2 MSTORE PUSH1 0x11 PUSH1 0x20 SWAP1 DUP2 MSTORE PUSH1 0x40 DUP1 DUP4 KECCAK256 DUP5 DUP5 MSTORE SWAP1 SWAP2 MSTORE SWAP1 KECCAK256 PUSH1 0xB ADD SLOAD CALLVALUE GT ISZERO PUSH2 0x1DD5 JUMPI PUSH1 0x0 DUP14 DUP2 MSTORE PUSH1 0x11 PUSH1 0x20 SWAP1 DUP2 MSTORE PUSH1 0x40 DUP1 DUP4 KECCAK256 DUP5 DUP5 MSTORE SWAP1 SWAP2 MSTORE SWAP1 KECCAK256 PUSH1 0x1 ADD SLOAD PUSH1 0x1 PUSH1 0x1 PUSH1 0xA0 SHL SUB AND SWAP3 POP SWAP1 POP DUP1 PUSH2 0x1DDD JUMP JUMPDEST PUSH1 0x1 ADD PUSH2 0x1D7A JUMP JUMPDEST POP PUSH1 0x1 PUSH1 0x1 PUSH1 0xA0 SHL SUB DUP3 AND PUSH2 0x1E31 JUMPI PUSH1 0x40 DUP1 MLOAD PUSH3 0x461BCD PUSH1 0xE5 SHL DUP2 MSTORE PUSH1 0x20 PUSH1 0x4 DUP3 ADD MSTORE PUSH1 0x15 PUSH1 0x24 DUP3 ADD MSTORE PUSH21 0x14995B185E595C9CC81B1A5CDD081A5CC8199D5B1B PUSH1 0x5A SHL PUSH1 0x44 DUP3 ADD MSTORE SWAP1 MLOAD SWAP1 DUP2 SWAP1 SUB PUSH1 0x64 ADD SWAP1 REVERT JUMPDEST PUSH1 0x0 PUSH1 0x11 PUSH1 0x0 DUP15 DUP2 MSTORE PUSH1 0x20 ADD SWAP1 DUP2 MSTORE PUSH1 0x20 ADD PUSH1 0x0 KECCAK256 PUSH1 0x0 DUP4 DUP2 MSTORE PUSH1 0x20 ADD SWAP1 DUP2 MSTORE PUSH1 0x20 ADD PUSH1 0x0 KECCAK256 PUSH1 0xB ADD SLOAD SWAP1 POP PUSH1 0x0 PUSH1 0x12 PUSH1 0x0 DUP16 DUP2 MSTORE PUSH1 0x20 ADD SWAP1 DUP2 MSTORE PUSH1 0x20 ADD PUSH1 0x0 KECCAK256 PUSH1 0x0 DUP6 PUSH1 0x1 PUSH1 0x1 PUSH1 0xA0 SHL SUB AND PUSH1 0x1 PUSH1 0x1 PUSH1 0xA0 SHL SUB AND DUP2 MSTORE PUSH1 0x20 ADD SWAP1 DUP2 MSTORE PUSH1 0x20 ADD PUSH1 0x0 KECCAK256 DUP2 SWAP1 SSTORE POP DUP10 PUSH1 0x11 PUSH1 0x0 DUP16 DUP2 MSTORE PUSH1 0x20 ADD SWAP1 DUP2 MSTORE PUSH1 0x20 ADD PUSH1 0x0 KECCAK256 PUSH1 0x0 DUP5 DUP2 MSTORE PUSH1 0x20 ADD SWAP1 DUP2 MSTORE PUSH1 0x20 ADD PUSH1 0x0 KECCAK256 PUSH1 0xA ADD DUP2 SWAP1 SSTORE POP DUP9 PUSH1 0x11 PUSH1 0x0 DUP16 DUP2 MSTORE PUSH1 0x20 ADD SWAP1 DUP2 MSTORE PUSH1 0x20 ADD PUSH1 0x0 KECCAK256 PUSH1 0x0 DUP5 DUP2 MSTORE PUSH1 0x20 ADD SWAP1 DUP2 MSTORE PUSH1 0x20 ADD PUSH1 0x0 KECCAK256 PUSH1 0x3 ADD DUP2 SWAP1 SSTORE POP DUP8 PUSH1 0x11 PUSH1 0x0 DUP16 DUP2 MSTORE PUSH1 0x20 ADD SWAP1 DUP2 MSTORE PUSH1 0x20 ADD PUSH1 0x0 KECCAK256 PUSH1 0x0 DUP5 DUP2 MSTORE PUSH1 0x20 ADD SWAP1 DUP2 MSTORE PUSH1 0x20 ADD PUSH1 0x0 KECCAK256 PUSH1 0x4 ADD DUP2 SWAP1 SSTORE POP DUP7 PUSH1 0x11 PUSH1 0x0 DUP16 DUP2 MSTORE PUSH1 0x20 ADD SWAP1 DUP2 MSTORE PUSH1 0x20 ADD PUSH1 0x0 KECCAK256 PUSH1 0x0 DUP5 DUP2 MSTORE PUSH1 0x20 ADD SWAP1 DUP2 MSTORE PUSH1 0x20 ADD PUSH1 0x0 KECCAK256 PUSH1 0x5 ADD DUP2 SWAP1 SSTORE POP DUP6 PUSH1 0x11 PUSH1 0x0 DUP16 DUP2 MSTORE PUSH1 0x20 ADD SWAP1 DUP2 MSTORE PUSH1 0x20 ADD PUSH1 0x0 KECCAK256 PUSH1 0x0 DUP5 DUP2 MSTORE PUSH1 0x20 ADD SWAP1 DUP2 MSTORE PUSH1 0x20 ADD PUSH1 0x0 KECCAK256 PUSH1 0x9 ADD DUP2 SWAP1 SSTORE POP DUP5 PUSH1 0x11 PUSH1 0x0 DUP16 DUP2 MSTORE PUSH1 0x20 ADD SWAP1 DUP2 MSTORE PUSH1 0x20 ADD PUSH1 0x0 KECCAK256 PUSH1 0x0 DUP5 DUP2 MSTORE PUSH1 0x20 ADD SWAP1 DUP2 MSTORE PUSH1 0x20 ADD PUSH1 0x0 KECCAK256 PUSH1 0xB ADD DUP2 SWAP1 SSTORE POP DUP11 PUSH1 0x11 PUSH1 0x0 DUP16 DUP2 MSTORE PUSH1 0x20 ADD SWAP1 DUP2 MSTORE PUSH1 0x20 ADD PUSH1 0x0 KECCAK256 PUSH1 0x0 DUP5 DUP2 MSTORE PUSH1 0x20 ADD SWAP1 DUP2 MSTORE PUSH1 0x20 ADD PUSH1 0x0 KECCAK256 PUSH1 0x0 ADD SWAP1 DUP1 MLOAD SWAP1 PUSH1 0x20 ADD SWAP1 PUSH2 0x1FDC SWAP3 SWAP2 SWAP1 PUSH2 0x32DC JUMP JUMPDEST POP PUSH1 0x0 DUP14 DUP2 MSTORE PUSH1 0x11 PUSH1 0x20 SWAP1 DUP2 MSTORE PUSH1 0x40 DUP1 DUP4 KECCAK256 DUP6 DUP5 MSTORE DUP3 MSTORE SWAP1 SWAP2 KECCAK256 DUP14 MLOAD PUSH2 0x200A SWAP3 PUSH1 0x2 SWAP1 SWAP3 ADD SWAP2 DUP16 ADD SWAP1 PUSH2 0x32DC JUMP JUMPDEST POP CALLER PUSH1 0x11 PUSH1 0x0 DUP16 DUP2 MSTORE PUSH1 0x20 ADD SWAP1 DUP2 MSTORE PUSH1 0x20 ADD PUSH1 0x0 KECCAK256 PUSH1 0x0 DUP5 DUP2 MSTORE PUSH1 0x20 ADD SWAP1 DUP2 MSTORE PUSH1 0x20 ADD PUSH1 0x0 KECCAK256 PUSH1 0x1 ADD PUSH1 0x0 PUSH2 0x100 EXP DUP2 SLOAD DUP2 PUSH1 0x1 PUSH1 0x1 PUSH1 0xA0 SHL SUB MUL NOT AND SWAP1 DUP4 PUSH1 0x1 PUSH1 0x1 PUSH1 0xA0 SHL SUB AND MUL OR SWAP1 SSTORE POP DUP2 PUSH1 0x12 PUSH1 0x0 DUP16 DUP2 MSTORE PUSH1 0x20 ADD SWAP1 DUP2 MSTORE PUSH1 0x20 ADD PUSH1 0x0 KECCAK256 PUSH1 0x0 CALLER PUSH1 0x1 PUSH1 0x1 PUSH1 0xA0 SHL SUB AND PUSH1 0x1 PUSH1 0x1 PUSH1 0xA0 SHL SUB AND DUP2 MSTORE PUSH1 0x20 ADD SWAP1 DUP2 MSTORE PUSH1 0x20 ADD PUSH1 0x0 KECCAK256 DUP2 SWAP1 SSTORE POP DUP3 PUSH1 0x1 PUSH1 0x1 PUSH1 0xA0 SHL SUB AND PUSH2 0x8FC DUP3 SWAP1 DUP2 ISZERO MUL SWAP1 PUSH1 0x40 MLOAD PUSH1 0x0 PUSH1 0x40 MLOAD DUP1 DUP4 SUB DUP2 DUP6 DUP9 DUP9 CALL SWAP4 POP POP POP POP ISZERO DUP1 ISZERO PUSH2 0x20CB JUMPI RETURNDATASIZE PUSH1 0x0 DUP1 RETURNDATACOPY RETURNDATASIZE PUSH1 0x0 REVERT JUMPDEST POP POP POP POP PUSH2 0x21DB JUMP JUMPDEST PUSH1 0x0 DUP11 DUP2 MSTORE PUSH1 0x10 PUSH1 0x20 SWAP1 DUP2 MSTORE PUSH1 0x40 DUP1 DUP4 KECCAK256 DUP1 SLOAD PUSH1 0x1 ADD DUP1 DUP3 SSTORE PUSH1 0x11 DUP5 MSTORE DUP3 DUP6 KECCAK256 SWAP1 DUP6 MSTORE DUP4 MSTORE DUP2 DUP5 KECCAK256 PUSH1 0xA ADD DUP12 SWAP1 SSTORE DUP1 SLOAD DUP5 MSTORE DUP2 DUP5 KECCAK256 PUSH1 0x3 ADD DUP11 SWAP1 SSTORE DUP1 SLOAD DUP5 MSTORE DUP2 DUP5 KECCAK256 PUSH1 0x4 ADD DUP10 SWAP1 SSTORE DUP1 SLOAD DUP5 MSTORE DUP2 DUP5 KECCAK256 PUSH1 0x5 ADD DUP9 SWAP1 SSTORE DUP1 SLOAD DUP5 MSTORE DUP2 DUP5 KECCAK256 PUSH1 0x9 ADD DUP8 SWAP1 SSTORE DUP1 SLOAD DUP5 MSTORE DUP2 DUP5 KECCAK256 PUSH1 0xB ADD DUP7 SWAP1 SSTORE SLOAD DUP4 MSTORE SWAP1 SWAP2 KECCAK256 DUP10 MLOAD PUSH2 0x2157 SWAP3 DUP12 ADD SWAP1 PUSH2 0x32DC JUMP JUMPDEST POP PUSH1 0x0 DUP11 DUP2 MSTORE PUSH1 0x11 PUSH1 0x20 SWAP1 DUP2 MSTORE PUSH1 0x40 DUP1 DUP4 KECCAK256 PUSH1 0x10 DUP4 MSTORE DUP2 DUP5 KECCAK256 SLOAD DUP5 MSTORE DUP3 MSTORE SWAP1 SWAP2 KECCAK256 DUP11 MLOAD PUSH2 0x218C SWAP3 PUSH1 0x2 SWAP1 SWAP3 ADD SWAP2 DUP13 ADD SWAP1 PUSH2 0x32DC JUMP JUMPDEST POP PUSH1 0x0 DUP11 DUP2 MSTORE PUSH1 0x11 PUSH1 0x20 SWAP1 DUP2 MSTORE PUSH1 0x40 DUP1 DUP4 KECCAK256 PUSH1 0x10 DUP4 MSTORE DUP2 DUP5 KECCAK256 DUP1 SLOAD DUP6 MSTORE SWAP1 DUP4 MSTORE DUP2 DUP5 KECCAK256 PUSH1 0x1 ADD DUP1 SLOAD PUSH1 0x1 PUSH1 0x1 PUSH1 0xA0 SHL SUB NOT AND CALLER SWAP1 DUP2 OR SWAP1 SWAP2 SSTORE DUP15 DUP6 MSTORE SWAP1 SLOAD PUSH1 0x12 DUP5 MSTORE DUP3 DUP6 KECCAK256 SWAP2 DUP6 MSTORE SWAP3 MSTORE SWAP1 SWAP2 KECCAK256 SSTORE JUMPDEST CALLER PUSH1 0x1 PUSH1 0x1 PUSH1 0xA0 SHL SUB AND CALLER PUSH1 0x1 PUSH1 0x1 PUSH1 0xA0 SHL SUB AND DUP12 PUSH32 0x59283CAB2093E7640FB7594FFA35F57D87EFD64488B7035867D3DB67D0DCC6DF DUP13 DUP13 DUP13 DUP10 PUSH1 0x40 MLOAD DUP1 DUP1 PUSH1 0x20 ADD DUP1 PUSH1 0x20 ADD DUP6 DUP2 MSTORE PUSH1 0x20 ADD DUP5 DUP2 MSTORE PUSH1 0x20 ADD DUP4 DUP2 SUB DUP4 MSTORE DUP8 DUP2 DUP2 MLOAD DUP2 MSTORE PUSH1 0x20 ADD SWAP2 POP DUP1 MLOAD SWAP1 PUSH1 0x20 ADD SWAP1 DUP1 DUP4 DUP4 PUSH1 0x0 JUMPDEST DUP4 DUP2 LT ISZERO PUSH2 0x2262 JUMPI DUP2 DUP2 ADD MLOAD DUP4 DUP3 ADD MSTORE PUSH1 0x20 ADD PUSH2 0x224A JUMP JUMPDEST POP POP POP POP SWAP1 POP SWAP1 DUP2 ADD SWAP1 PUSH1 0x1F AND DUP1 ISZERO PUSH2 0x228F JUMPI DUP1 DUP3 SUB DUP1 MLOAD PUSH1 0x1 DUP4 PUSH1 0x20 SUB PUSH2 0x100 EXP SUB NOT AND DUP2 MSTORE PUSH1 0x20 ADD SWAP2 POP JUMPDEST POP DUP4 DUP2 SUB DUP3 MSTORE DUP7 MLOAD DUP2 MSTORE DUP7 MLOAD PUSH1 0x20 SWAP2 DUP3 ADD SWAP2 DUP9 ADD SWAP1 DUP1 DUP4 DUP4 PUSH1 0x0 JUMPDEST DUP4 DUP2 LT ISZERO PUSH2 0x22C2 JUMPI DUP2 DUP2 ADD MLOAD DUP4 DUP3 ADD MSTORE PUSH1 0x20 ADD PUSH2 0x22AA JUMP JUMPDEST POP POP POP POP SWAP1 POP SWAP1 DUP2 ADD SWAP1 PUSH1 0x1F AND DUP1 ISZERO PUSH2 0x22EF JUMPI DUP1 DUP3 SUB DUP1 MLOAD PUSH1 0x1 DUP4 PUSH1 0x20 SUB PUSH2 0x100 EXP SUB NOT AND DUP2 MSTORE PUSH1 0x20 ADD SWAP2 POP JUMPDEST POP SWAP7 POP POP POP POP POP POP POP PUSH1 0x40 MLOAD DUP1 SWAP2 SUB SWAP1 LOG4 POP POP POP POP POP POP POP POP POP POP JUMP JUMPDEST PUSH1 0x4 SLOAD DUP2 JUMP JUMPDEST PUSH1 0x9 SLOAD DUP2 JUMP JUMPDEST PUSH1 0x12 PUSH1 0x20 SWAP1 DUP2 MSTORE PUSH1 0x0 SWAP3 DUP4 MSTORE PUSH1 0x40 DUP1 DUP5 KECCAK256 SWAP1 SWAP2 MSTORE SWAP1 DUP3 MSTORE SWAP1 KECCAK256 SLOAD DUP2 JUMP JUMPDEST PUSH1 0x13 PUSH1 0x20 SWAP1 DUP2 MSTORE PUSH1 0x0 SWAP3 DUP4 MSTORE PUSH1 0x40 DUP1 DUP5 KECCAK256 SWAP1 SWAP2 MSTORE SWAP1 DUP3 MSTORE SWAP1 KECCAK256 DUP1 SLOAD PUSH1 0x1 SWAP1 SWAP2 ADD SLOAD DUP3 JUMP JUMPDEST PUSH1 0x0 PUSH2 0x2363 PUSH2 0x27F6 JUMP JUMPDEST PUSH1 0x1 ADD SWAP1 POP SWAP1 JUMP JUMPDEST PUSH1 0x6 SLOAD DUP2 JUMP JUMPDEST PUSH1 0x0 DUP1 PUSH1 0x0 DUP1 DUP5 PUSH1 0x40 MLOAD PUSH1 0x20 ADD DUP1 DUP3 DUP1 MLOAD SWAP1 PUSH1 0x20 ADD SWAP1 DUP1 DUP4 DUP4 JUMPDEST PUSH1 0x20 DUP4 LT PUSH2 0x23AA JUMPI DUP1 MLOAD DUP3 MSTORE PUSH1 0x1F NOT SWAP1 SWAP3 ADD SWAP2 PUSH1 0x20 SWAP2 DUP3 ADD SWAP2 ADD PUSH2 0x238B JUMP JUMPDEST MLOAD DUP2 MLOAD PUSH1 0x20 SWAP4 DUP5 SUB PUSH2 0x100 EXP PUSH1 0x0 NOT ADD DUP1 NOT SWAP1 SWAP3 AND SWAP2 AND OR SWAP1 MSTORE PUSH1 0x40 DUP1 MLOAD SWAP3 SWAP1 SWAP5 ADD DUP3 DUP2 SUB PUSH1 0x1F NOT ADD DUP4 MSTORE SWAP1 SWAP4 MSTORE DUP1 MLOAD SWAP3 ADD SWAP2 SWAP1 SWAP2 KECCAK256 DUP10 DUP2 EQ SWAP11 SWAP1 SWAP9 POP SWAP7 POP POP POP POP POP POP POP JUMP JUMPDEST PUSH1 0x0 PUSH2 0x3E8 DUP5 GT PUSH2 0x241B JUMPI PUSH2 0x2415 DUP5 PUSH9 0x56BC75E2D63100000 PUSH4 0xFFFFFFFF PUSH2 0x3233 AND JUMP JUMPDEST ADD PUSH2 0x24F3 JUMP JUMPDEST PUSH2 0x3E7 NOT SWAP1 SWAP4 ADD SWAP3 PUSH10 0x152D02C7E14AF6800000 ADD PUSH2 0x2710 DUP5 GT PUSH2 0x2451 JUMPI PUSH2 0x2415 DUP5 PUSH9 0x2B5E3AF16B1880000 PUSH4 0xFFFFFFFF PUSH2 0x3233 AND JUMP JUMPDEST PUSH2 0x270F NOT SWAP1 SWAP4 ADD SWAP3 PUSH10 0x69E10DE76676D0800000 ADD PUSH3 0x186A0 DUP5 GT PUSH2 0x2488 JUMPI PUSH2 0x2415 DUP5 PUSH9 0x15AF1D78B58C40000 PUSH4 0xFFFFFFFF PUSH2 0x3233 AND JUMP JUMPDEST PUSH3 0x1869F NOT SWAP1 SWAP4 ADD SWAP3 PUSH11 0x211654585005212800000 ADD PUSH3 0xF4240 DUP5 GT PUSH2 0x24C3 JUMPI PUSH2 0x2415 DUP5 PUSH9 0x6C6B935B8BBD40000 PUSH1 0xA PUSH4 0xFFFFFFFF PUSH2 0x3292 AND JUMP JUMPDEST PUSH3 0xF423F NOT SWAP1 SWAP4 ADD SWAP3 PUSH11 0xA56FA5B99019A5C800000 ADD PUSH2 0x24F1 DUP5 PUSH8 0x8AC7230489E80000 PUSH4 0xFFFFFFFF PUSH2 0x3233 AND JUMP JUMPDEST ADD JUMPDEST PUSH9 0x3635C9ADC5DEA00000 DUP4 GT PUSH2 0x251E JUMPI PUSH2 0x2518 DUP4 PUSH2 0x1F4 PUSH2 0x3E8 PUSH4 0xFFFFFFFF PUSH2 0x3292 AND JUMP JUMPDEST ADD PUSH2 0x25F2 JUMP JUMPDEST PUSH9 0x3635C9ADC5DE9FFFFF NOT SWAP1 SWAP3 ADD SWAP2 PUSH2 0x1F4 ADD PUSH10 0x21E19E0C9BAB2400000 DUP4 GT PUSH2 0x2556 JUMPI PUSH2 0x2518 DUP4 PUSH1 0xC8 PUSH2 0x3E8 PUSH4 0xFFFFFFFF PUSH2 0x3292 AND JUMP JUMPDEST PUSH10 0x21E19E0C9BAB23FFFFF NOT SWAP1 SWAP3 ADD SWAP2 PUSH2 0x7D0 ADD PUSH10 0x152D02C7E14AF6800000 DUP4 GT PUSH2 0x258F JUMPI PUSH2 0x2518 DUP4 PUSH1 0x64 PUSH2 0x3E8 PUSH4 0xFFFFFFFF PUSH2 0x3292 AND JUMP JUMPDEST PUSH10 0x152D02C7E14AF67FFFFF NOT SWAP1 SWAP3 ADD SWAP2 PUSH2 0x2710 ADD PUSH10 0xD3C21BCECCEDA1000000 DUP4 GT PUSH2 0x25C8 JUMPI PUSH2 0x2518 DUP4 PUSH1 0xA PUSH2 0x3E8 PUSH4 0xFFFFFFFF PUSH2 0x3292 AND JUMP JUMPDEST PUSH10 0xD3C21BCECCEDA0FFFFFF NOT SWAP1 SWAP3 ADD SWAP2 PUSH2 0x2710 ADD PUSH2 0x25F0 DUP4 PUSH1 0x1 PUSH2 0x3E8 PUSH4 0xFFFFFFFF PUSH2 0x3292 AND JUMP JUMPDEST ADD JUMPDEST PUSH1 0xA DUP3 GT PUSH2 0x261E JUMPI PUSH2 0x2618 DUP3 PUSH10 0x21E19E0C9BAB2400000 PUSH3 0x186A0 PUSH4 0xFFFFFFFF PUSH2 0x3292 AND JUMP JUMPDEST ADD PUSH2 0x2704 JUMP JUMPDEST PUSH1 0x9 NOT SWAP1 SWAP2 ADD SWAP1 PUSH8 0xDE0B6B3A7640000 ADD PUSH2 0x3E8 DUP3 GT PUSH2 0x2656 JUMPI PUSH2 0x2618 DUP3 PUSH10 0x1969368974C05B000000 PUSH3 0x186A0 PUSH4 0xFFFFFFFF PUSH2 0x3292 AND JUMP JUMPDEST PUSH2 0x3E7 NOT SWAP1 SWAP2 ADD SWAP1 PUSH9 0x410D586A20A4C00000 ADD PUSH3 0x186A0 DUP3 GT PUSH2 0x2691 JUMPI PUSH2 0x2618 DUP3 PUSH10 0x1FC3842BD1F071C00000 PUSH3 0x186A0 PUSH4 0xFFFFFFFF PUSH2 0x3292 AND JUMP JUMPDEST PUSH3 0x1869F NOT SWAP1 SWAP2 ADD SWAP1 PUSH10 0x1FC3842BD1F071C00000 ADD PUSH3 0x989680 DUP3 GT PUSH2 0x26CE JUMPI PUSH2 0x2618 DUP3 PUSH10 0x2A5A058FC295ED000000 PUSH3 0x186A0 PUSH4 0xFFFFFFFF PUSH2 0x3292 AND JUMP JUMPDEST PUSH3 0x98967F NOT SWAP1 SWAP2 ADD SWAP1 PUSH11 0x108B2A2C28029094000000 ADD PUSH2 0x2702 DUP3 PUSH10 0xD3C21BCECCEDA1000000 PUSH3 0x186A0 PUSH4 0xFFFFFFFF PUSH2 0x3292 AND JUMP JUMPDEST ADD JUMPDEST SWAP4 SWAP3 POP POP POP JUMP JUMPDEST PUSH1 0x0 CALLVALUE GT PUSH2 0x2718 JUMPI PUSH1 0x0 DUP1 REVERT JUMPDEST PUSH1 0x0 DUP3 DUP2 MSTORE PUSH1 0xE PUSH1 0x20 MSTORE PUSH1 0x40 SWAP1 KECCAK256 PUSH1 0x1 ADD SLOAD PUSH1 0x1 PUSH1 0x1 PUSH1 0xA0 SHL SUB AND CALLER EQ PUSH2 0x2770 JUMPI PUSH1 0x40 MLOAD PUSH3 0x461BCD PUSH1 0xE5 SHL DUP2 MSTORE PUSH1 0x4 ADD DUP1 DUP1 PUSH1 0x20 ADD DUP3 DUP2 SUB DUP3 MSTORE PUSH1 0x29 DUP2 MSTORE PUSH1 0x20 ADD DUP1 PUSH2 0x3398 PUSH1 0x29 SWAP2 CODECOPY PUSH1 0x40 ADD SWAP2 POP POP PUSH1 0x40 MLOAD DUP1 SWAP2 SUB SWAP1 REVERT JUMPDEST PUSH1 0x0 DUP3 DUP2 MSTORE PUSH1 0xE PUSH1 0x20 MSTORE PUSH1 0x40 SWAP1 KECCAK256 PUSH1 0x5 ADD SLOAD PUSH1 0xFF AND PUSH2 0x278E JUMPI PUSH1 0x0 DUP1 REVERT JUMPDEST PUSH1 0x0 DUP3 DUP2 MSTORE PUSH1 0xE PUSH1 0x20 SWAP1 DUP2 MSTORE PUSH1 0x40 SWAP2 DUP3 SWAP1 KECCAK256 PUSH1 0x4 DUP2 ADD DUP1 SLOAD CALLVALUE SWAP1 DUP2 ADD SWAP1 SWAP2 SSTORE PUSH1 0x3 SWAP1 SWAP2 ADD DUP1 SLOAD PUSH3 0x15180 DUP7 MUL ADD SWAP1 SSTORE DUP3 MLOAD DUP6 DUP2 MSTORE SWAP2 DUP3 ADD MSTORE DUP2 MLOAD CALLER SWAP3 PUSH32 0xF32E9C41A6ECB97A6A440F3B80AB2000CF8ACE6E10FA58F4B5E6C1CFFDF7F9CC SWAP3 DUP3 SWAP1 SUB ADD SWAP1 LOG2 POP POP JUMP JUMPDEST PUSH1 0x0 DUP1 SLOAD PUSH2 0x2363 SWAP1 NUMBER SWAP1 PUSH4 0xFFFFFFFF PUSH2 0x3265 AND JUMP JUMPDEST PUSH1 0xA SLOAD DUP2 JUMP JUMPDEST CALLER PUSH1 0x0 SWAP1 DUP2 MSTORE PUSH1 0x13 PUSH1 0x20 SWAP1 DUP2 MSTORE PUSH1 0x40 DUP1 DUP4 KECCAK256 PUSH1 0x1 PUSH1 0x1 PUSH1 0xA0 SHL SUB DUP7 AND DUP5 MSTORE SWAP1 SWAP2 MSTORE SWAP1 KECCAK256 SLOAD NUMBER GT PUSH2 0x2879 JUMPI PUSH1 0x40 DUP1 MLOAD PUSH3 0x461BCD PUSH1 0xE5 SHL DUP2 MSTORE PUSH1 0x20 PUSH1 0x4 DUP3 ADD MSTORE PUSH1 0xE PUSH1 0x24 DUP3 ADD MSTORE PUSH14 0x10985B185B98D9481B1BD8DAD959 PUSH1 0x92 SHL PUSH1 0x44 DUP3 ADD MSTORE SWAP1 MLOAD SWAP1 DUP2 SWAP1 SUB PUSH1 0x64 ADD SWAP1 REVERT JUMPDEST CALLER PUSH1 0x0 SWAP1 DUP2 MSTORE PUSH1 0x13 PUSH1 0x20 SWAP1 DUP2 MSTORE PUSH1 0x40 DUP1 DUP4 KECCAK256 PUSH1 0x1 PUSH1 0x1 PUSH1 0xA0 SHL SUB DUP7 AND DUP5 MSTORE SWAP1 SWAP2 MSTORE SWAP1 KECCAK256 PUSH1 0x1 ADD SLOAD DUP2 GT ISZERO PUSH2 0x28EB JUMPI PUSH1 0x40 DUP1 MLOAD PUSH3 0x461BCD PUSH1 0xE5 SHL DUP2 MSTORE PUSH1 0x20 PUSH1 0x4 DUP3 ADD MSTORE PUSH1 0x14 PUSH1 0x24 DUP3 ADD MSTORE PUSH20 0x496E73756666696369656E742062616C616E6365 PUSH1 0x60 SHL PUSH1 0x44 DUP3 ADD MSTORE SWAP1 MLOAD SWAP1 DUP2 SWAP1 SUB PUSH1 0x64 ADD SWAP1 REVERT JUMPDEST CALLER PUSH1 0x0 DUP2 DUP2 MSTORE PUSH1 0x13 PUSH1 0x20 SWAP1 DUP2 MSTORE PUSH1 0x40 DUP1 DUP4 KECCAK256 PUSH1 0x1 PUSH1 0x1 PUSH1 0xA0 SHL SUB DUP8 AND DUP5 MSTORE SWAP1 SWAP2 MSTORE DUP1 DUP3 KECCAK256 PUSH1 0x1 ADD DUP1 SLOAD DUP6 SWAP1 SUB SWAP1 SSTORE MLOAD DUP4 ISZERO PUSH2 0x8FC MUL SWAP2 DUP5 SWAP2 SWAP1 DUP2 DUP2 DUP2 DUP6 DUP9 DUP9 CALL SWAP4 POP POP POP POP ISZERO DUP1 ISZERO PUSH2 0x2941 JUMPI RETURNDATASIZE PUSH1 0x0 DUP1 RETURNDATACOPY RETURNDATASIZE PUSH1 0x0 REVERT JUMPDEST POP PUSH1 0x40 DUP1 MLOAD DUP3 DUP2 MSTORE SWAP1 MLOAD CALLER SWAP2 PUSH1 0x1 PUSH1 0x1 PUSH1 0xA0 SHL SUB DUP6 AND SWAP2 PUSH32 0x6985A6DD52AEB8194DF40B7AF2F362F362440AFFC39C1314649ABC28DBF6B628 SWAP2 DUP2 SWAP1 SUB PUSH1 0x20 ADD SWAP1 LOG3 POP POP JUMP JUMPDEST PUSH1 0x3 SLOAD DUP2 JUMP JUMPDEST PUSH1 0x0 DUP2 DUP2 MSTORE PUSH1 0x12 PUSH1 0x20 SWAP1 DUP2 MSTORE PUSH1 0x40 DUP1 DUP4 KECCAK256 CALLER DUP5 MSTORE SWAP1 SWAP2 MSTORE SWAP1 KECCAK256 SLOAD DUP1 PUSH2 0x29EC JUMPI PUSH1 0x40 DUP1 MLOAD PUSH3 0x461BCD PUSH1 0xE5 SHL DUP2 MSTORE PUSH1 0x20 PUSH1 0x4 DUP3 ADD MSTORE PUSH1 0x11 PUSH1 0x24 DUP3 ADD MSTORE PUSH17 0x14995B185E595C881B9BDD08199BDD5B99 PUSH1 0x7A SHL PUSH1 0x44 DUP3 ADD MSTORE SWAP1 MLOAD SWAP1 DUP2 SWAP1 SUB PUSH1 0x64 ADD SWAP1 REVERT JUMPDEST PUSH1 0x0 PUSH2 0x29F6 PUSH2 0x27F6 JUMP JUMPDEST SWAP1 POP PUSH1 0x1 DUP2 SUB DUP4 LT PUSH2 0x2A39 JUMPI PUSH1 0x40 MLOAD PUSH3 0x461BCD PUSH1 0xE5 SHL DUP2 MSTORE PUSH1 0x4 ADD DUP1 DUP1 PUSH1 0x20 ADD DUP3 DUP2 SUB DUP3 MSTORE PUSH1 0x32 DUP2 MSTORE PUSH1 0x20 ADD DUP1 PUSH2 0x34B7 PUSH1 0x32 SWAP2 CODECOPY PUSH1 0x40 ADD SWAP2 POP POP PUSH1 0x40 MLOAD DUP1 SWAP2 SUB SWAP1 REVERT JUMPDEST PUSH1 0x0 DUP4 DUP2 MSTORE PUSH1 0x11 PUSH1 0x20 SWAP1 DUP2 MSTORE PUSH1 0x40 DUP1 DUP4 KECCAK256 DUP6 DUP5 MSTORE SWAP1 SWAP2 MSTORE SWAP1 KECCAK256 PUSH1 0xB ADD SLOAD DUP1 PUSH2 0x2A9F JUMPI PUSH1 0x40 DUP1 MLOAD PUSH3 0x461BCD PUSH1 0xE5 SHL DUP2 MSTORE PUSH1 0x20 PUSH1 0x4 DUP3 ADD MSTORE PUSH1 0x14 PUSH1 0x24 DUP3 ADD MSTORE PUSH20 0x496E73756666696369656E742062616C616E6365 PUSH1 0x60 SHL PUSH1 0x44 DUP3 ADD MSTORE SWAP1 MLOAD SWAP1 DUP2 SWAP1 SUB PUSH1 0x64 ADD SWAP1 REVERT JUMPDEST PUSH1 0x0 DUP5 DUP2 MSTORE PUSH1 0x11 PUSH1 0x20 SWAP1 DUP2 MSTORE PUSH1 0x40 DUP1 DUP4 KECCAK256 DUP7 DUP5 MSTORE SWAP1 SWAP2 MSTORE DUP1 DUP3 KECCAK256 PUSH1 0xB ADD DUP3 SWAP1 SSTORE MLOAD CALLER SWAP2 DUP4 ISZERO PUSH2 0x8FC MUL SWAP2 DUP5 SWAP2 DUP2 DUP2 DUP2 DUP6 DUP9 DUP9 CALL SWAP4 POP POP POP POP ISZERO DUP1 ISZERO PUSH2 0x2AE8 JUMPI RETURNDATASIZE PUSH1 0x0 DUP1 RETURNDATACOPY RETURNDATASIZE PUSH1 0x0 REVERT JUMPDEST POP PUSH1 0x40 DUP1 MLOAD DUP3 DUP2 MSTORE SWAP1 MLOAD CALLER SWAP2 DUP7 SWAP2 PUSH32 0x8DA668C6F9C27773056D4FF76370E725CB35C64B834CBC73F385FC331703CB76 SWAP2 DUP2 SWAP1 SUB PUSH1 0x20 ADD SWAP1 LOG3 POP POP POP POP JUMP JUMPDEST PUSH1 0x0 DUP6 DUP2 MSTORE PUSH1 0x12 PUSH1 0x20 SWAP1 DUP2 MSTORE PUSH1 0x40 DUP1 DUP4 KECCAK256 CALLER DUP5 MSTORE SWAP1 SWAP2 MSTORE SWAP1 KECCAK256 SLOAD DUP1 PUSH2 0x2B86 JUMPI PUSH1 0x40 DUP1 MLOAD PUSH3 0x461BCD PUSH1 0xE5 SHL DUP2 MSTORE PUSH1 0x20 PUSH1 0x4 DUP3 ADD MSTORE PUSH1 0x11 PUSH1 0x24 DUP3 ADD MSTORE PUSH17 0x14995B185E595C881B9BDD08199BDD5B99 PUSH1 0x7A SHL PUSH1 0x44 DUP3 ADD MSTORE SWAP1 MLOAD SWAP1 DUP2 SWAP1 SUB PUSH1 0x64 ADD SWAP1 REVERT JUMPDEST PUSH2 0x3E8 DUP4 LT PUSH2 0x2BDC JUMPI PUSH1 0x40 DUP1 MLOAD PUSH3 0x461BCD PUSH1 0xE5 SHL DUP2 MSTORE PUSH1 0x20 PUSH1 0x4 DUP3 ADD MSTORE PUSH1 0x1D PUSH1 0x24 DUP3 ADD MSTORE PUSH32 0x4665652073686F756C64206265206C6F776572207468616E2031303030000000 PUSH1 0x44 DUP3 ADD MSTORE SWAP1 MLOAD SWAP1 DUP2 SWAP1 SUB PUSH1 0x64 ADD SWAP1 REVERT JUMPDEST PUSH1 0x0 DUP3 GT PUSH2 0x2C1B JUMPI PUSH1 0x40 MLOAD PUSH3 0x461BCD PUSH1 0xE5 SHL DUP2 MSTORE PUSH1 0x4 ADD DUP1 DUP1 PUSH1 0x20 ADD DUP3 DUP2 SUB DUP3 MSTORE PUSH1 0x28 DUP2 MSTORE PUSH1 0x20 ADD DUP1 PUSH2 0x353E PUSH1 0x28 SWAP2 CODECOPY PUSH1 0x40 ADD SWAP2 POP POP PUSH1 0x40 MLOAD DUP1 SWAP2 SUB SWAP1 REVERT JUMPDEST PUSH1 0x0 DUP7 DUP2 MSTORE PUSH1 0x11 PUSH1 0x20 SWAP1 DUP2 MSTORE PUSH1 0x40 DUP1 DUP4 KECCAK256 DUP5 DUP5 MSTORE DUP3 MSTORE SWAP1 SWAP2 KECCAK256 DUP7 MLOAD PUSH2 0x2C48 SWAP3 PUSH1 0x2 SWAP1 SWAP3 ADD SWAP2 DUP9 ADD SWAP1 PUSH2 0x32DC JUMP JUMPDEST POP PUSH1 0x0 DUP7 DUP2 MSTORE PUSH1 0x11 PUSH1 0x20 SWAP1 DUP2 MSTORE PUSH1 0x40 DUP1 DUP4 KECCAK256 DUP5 DUP5 MSTORE DUP3 MSTORE SWAP1 SWAP2 KECCAK256 DUP6 MLOAD PUSH2 0x2C70 SWAP3 DUP8 ADD SWAP1 PUSH2 0x32DC JUMP JUMPDEST POP PUSH1 0x0 DUP7 DUP2 MSTORE PUSH1 0x11 PUSH1 0x20 SWAP1 DUP2 MSTORE PUSH1 0x40 DUP1 DUP4 KECCAK256 DUP5 DUP5 MSTORE DUP3 MSTORE DUP1 DUP4 KECCAK256 PUSH1 0xA DUP2 ADD DUP8 SWAP1 SSTORE PUSH1 0x9 ADD DUP6 SWAP1 SSTORE DUP1 MLOAD SWAP1 DUP2 ADD DUP7 SWAP1 MSTORE PUSH1 0x60 DUP2 ADD DUP6 SWAP1 MSTORE PUSH1 0x80 DUP1 DUP3 MSTORE DUP9 MLOAD SWAP1 DUP3 ADD MSTORE DUP8 MLOAD CALLER SWAP4 DUP11 SWAP4 PUSH32 0x41DCC4B2357A75AA2F34BDBA2016B0FA0DD2726756C900A822B2C6AEFDF7A3DD SWAP4 DUP12 SWAP4 DUP12 SWAP4 DUP12 SWAP4 DUP12 SWAP4 SWAP3 DUP4 SWAP3 DUP4 DUP4 ADD SWAP3 PUSH1 0xA0 DUP6 ADD SWAP3 SWAP1 DUP11 ADD SWAP2 DUP2 SWAP1 DUP5 SWAP1 DUP5 SWAP1 JUMPDEST DUP4 DUP2 LT ISZERO PUSH2 0x2D10 JUMPI DUP2 DUP2 ADD MLOAD DUP4 DUP3 ADD MSTORE PUSH1 0x20 ADD PUSH2 0x2CF8 JUMP JUMPDEST POP POP POP POP SWAP1 POP SWAP1 DUP2 ADD SWAP1 PUSH1 0x1F AND DUP1 ISZERO PUSH2 0x2D3D JUMPI DUP1 DUP3 SUB DUP1 MLOAD PUSH1 0x1 DUP4 PUSH1 0x20 SUB PUSH2 0x100 EXP SUB NOT AND DUP2 MSTORE PUSH1 0x20 ADD SWAP2 POP JUMPDEST POP DUP4 DUP2 SUB DUP3 MSTORE DUP7 MLOAD DUP2 MSTORE DUP7 MLOAD PUSH1 0x20 SWAP2 DUP3 ADD SWAP2 DUP9 ADD SWAP1 DUP1 DUP4 DUP4 PUSH1 0x0 JUMPDEST DUP4 DUP2 LT ISZERO PUSH2 0x2D70 JUMPI DUP2 DUP2 ADD MLOAD DUP4 DUP3 ADD MSTORE PUSH1 0x20 ADD PUSH2 0x2D58 JUMP JUMPDEST POP POP POP POP SWAP1 POP SWAP1 DUP2 ADD SWAP1 PUSH1 0x1F AND DUP1 ISZERO PUSH2 0x2D9D JUMPI DUP1 DUP3 SUB DUP1 MLOAD PUSH1 0x1 DUP4 PUSH1 0x20 SUB PUSH2 0x100 EXP SUB NOT AND DUP2 MSTORE PUSH1 0x20 ADD SWAP2 POP JUMPDEST POP SWAP7 POP POP POP POP POP POP POP PUSH1 0x40 MLOAD DUP1 SWAP2 SUB SWAP1 LOG3 POP POP POP POP POP POP JUMP JUMPDEST PUSH1 0x0 DUP1 PUSH1 0x1 PUSH2 0x2DD0 PUSH1 0x0 SLOAD DUP6 PUSH2 0x3233 SWAP1 SWAP2 SWAP1 PUSH4 0xFFFFFFFF AND JUMP JUMPDEST SUB SWAP1 POP PUSH1 0x0 NOT DUP2 ADD PUSH2 0x2DE2 DUP3 DUP3 PUSH2 0x10D2 JUMP JUMPDEST SWAP5 SWAP4 POP POP POP POP JUMP JUMPDEST PUSH1 0x40 DUP1 MLOAD PUSH1 0x20 DUP1 DUP3 ADD DUP10 SWAP1 MSTORE DUP2 DUP4 ADD DUP5 SWAP1 MSTORE DUP3 MLOAD DUP1 DUP4 SUB DUP5 ADD DUP2 MSTORE PUSH1 0x60 SWAP1 SWAP3 ADD SWAP1 SWAP3 MSTORE DUP1 MLOAD SWAP2 ADD KECCAK256 PUSH1 0x0 SWAP1 DUP7 DUP2 EQ PUSH2 0x2E53 JUMPI PUSH1 0x40 MLOAD PUSH3 0x461BCD PUSH1 0xE5 SHL DUP2 MSTORE PUSH1 0x4 ADD DUP1 DUP1 PUSH1 0x20 ADD DUP3 DUP2 SUB DUP3 MSTORE PUSH1 0x34 DUP2 MSTORE PUSH1 0x20 ADD DUP1 PUSH2 0x350A PUSH1 0x34 SWAP2 CODECOPY PUSH1 0x40 ADD SWAP2 POP POP PUSH1 0x40 MLOAD DUP1 SWAP2 SUB SWAP1 REVERT JUMPDEST PUSH1 0x40 DUP1 MLOAD PUSH1 0x0 DUP1 DUP3 MSTORE PUSH1 0x20 DUP1 DUP4 ADD DUP1 DUP6 MSTORE DUP12 SWAP1 MSTORE PUSH1 0xFF DUP11 AND DUP4 DUP6 ADD MSTORE PUSH1 0x60 DUP4 ADD DUP10 SWAP1 MSTORE PUSH1 0x80 DUP4 ADD DUP9 SWAP1 MSTORE SWAP3 MLOAD SWAP1 SWAP3 PUSH1 0x1 SWAP3 PUSH1 0xA0 DUP1 DUP3 ADD SWAP4 PUSH1 0x1F NOT DUP2 ADD SWAP3 DUP2 SWAP1 SUB SWAP1 SWAP2 ADD SWAP1 DUP6 GAS STATICCALL ISZERO DUP1 ISZERO PUSH2 0x2EAB JUMPI RETURNDATASIZE PUSH1 0x0 DUP1 RETURNDATACOPY RETURNDATASIZE PUSH1 0x0 REVERT JUMPDEST POP POP PUSH1 0x40 MLOAD PUSH1 0x1F NOT ADD MLOAD SWAP11 SWAP10 POP POP POP POP POP POP POP POP POP POP JUMP JUMPDEST PUSH1 0x0 PUSH2 0x14C6 PUSH1 0x3 SLOAD PUSH2 0x14DB PUSH2 0x14AA JUMP JUMPDEST PUSH1 0x0 PUSH2 0x2EE5 DUP15 DUP15 DUP15 DUP15 DUP11 DUP11 DUP10 DUP10 PUSH2 0x1992 JUMP JUMPDEST SWAP1 POP PUSH1 0x0 PUSH2 0x2EF7 DUP16 DUP13 DUP13 DUP13 DUP13 DUP11 PUSH2 0x2DEA JUMP JUMPDEST SWAP1 POP PUSH1 0x0 PUSH2 0x2F04 DUP7 PUSH2 0x150A JUMP JUMPDEST PUSH1 0x0 DUP2 DUP2 MSTORE PUSH1 0x12 PUSH1 0x20 SWAP1 DUP2 MSTORE PUSH1 0x40 DUP1 DUP4 KECCAK256 PUSH1 0x1 PUSH1 0x1 PUSH1 0xA0 SHL SUB DUP8 AND DUP5 MSTORE SWAP1 SWAP2 MSTORE SWAP1 KECCAK256 SLOAD SWAP1 SWAP2 POP DUP1 ISZERO DUP1 ISZERO PUSH2 0x2F38 JUMPI POP PUSH1 0x1 DUP3 GT JUMPDEST ISZERO PUSH2 0x2F66 JUMPI POP PUSH1 0x0 NOT ADD PUSH1 0x0 DUP2 DUP2 MSTORE PUSH1 0x12 PUSH1 0x20 SWAP1 DUP2 MSTORE PUSH1 0x40 DUP1 DUP4 KECCAK256 PUSH1 0x1 PUSH1 0x1 PUSH1 0xA0 SHL SUB DUP7 AND DUP5 MSTORE SWAP1 SWAP2 MSTORE SWAP1 KECCAK256 SLOAD JUMPDEST PUSH1 0x0 DUP2 GT PUSH2 0x2FAF JUMPI PUSH1 0x40 DUP1 MLOAD PUSH3 0x461BCD PUSH1 0xE5 SHL DUP2 MSTORE PUSH1 0x20 PUSH1 0x4 DUP3 ADD MSTORE PUSH1 0x11 PUSH1 0x24 DUP3 ADD MSTORE PUSH17 0x14995B185E595C881B9BDD08199BDD5B99 PUSH1 0x7A SHL PUSH1 0x44 DUP3 ADD MSTORE SWAP1 MLOAD SWAP1 DUP2 SWAP1 SUB PUSH1 0x64 ADD SWAP1 REVERT JUMPDEST PUSH1 0x1 PUSH1 0x1 PUSH1 0xA0 SHL SUB DUP1 DUP6 AND PUSH1 0x0 SWAP1 DUP2 MSTORE PUSH1 0x14 PUSH1 0x20 SWAP1 DUP2 MSTORE PUSH1 0x40 DUP1 DUP4 KECCAK256 DUP11 DUP6 AND DUP5 MSTORE DUP3 MSTORE DUP1 DUP4 KECCAK256 SWAP4 DUP8 AND DUP4 MSTORE SWAP3 DUP2 MSTORE DUP3 DUP3 KECCAK256 DUP13 DUP4 MSTORE SWAP1 MSTORE KECCAK256 SLOAD DUP6 GT PUSH2 0x3024 JUMPI PUSH1 0x40 MLOAD PUSH3 0x461BCD PUSH1 0xE5 SHL DUP2 MSTORE PUSH1 0x4 ADD DUP1 DUP1 PUSH1 0x20 ADD DUP3 DUP2 SUB DUP3 MSTORE PUSH1 0x6E DUP2 MSTORE PUSH1 0x20 ADD DUP1 PUSH2 0x3653 PUSH1 0x6E SWAP2 CODECOPY PUSH1 0x80 ADD SWAP2 POP POP PUSH1 0x40 MLOAD DUP1 SWAP2 SUB SWAP1 REVERT JUMPDEST PUSH1 0x1 PUSH1 0x1 PUSH1 0xA0 SHL SUB DUP5 DUP2 AND PUSH1 0x0 SWAP1 DUP2 MSTORE PUSH1 0x14 PUSH1 0x20 SWAP1 DUP2 MSTORE PUSH1 0x40 DUP1 DUP4 KECCAK256 DUP11 DUP6 AND DUP5 MSTORE DUP3 MSTORE DUP1 DUP4 KECCAK256 SWAP4 DUP8 AND DUP4 MSTORE SWAP3 DUP2 MSTORE DUP3 DUP3 KECCAK256 DUP13 DUP4 MSTORE SWAP1 MSTORE SWAP1 DUP2 KECCAK256 DUP1 SLOAD SWAP1 DUP8 SWAP1 SSTORE DUP7 SUB SWAP1 DUP1 NUMBER DUP11 LT PUSH2 0x312B JUMPI PUSH1 0x1 PUSH1 0x1 PUSH1 0xA0 SHL SUB DUP1 DUP9 AND PUSH1 0x0 SWAP1 DUP2 MSTORE PUSH1 0x13 PUSH1 0x20 SWAP1 DUP2 MSTORE PUSH1 0x40 DUP1 DUP4 KECCAK256 SWAP4 DUP11 AND DUP4 MSTORE SWAP3 SWAP1 MSTORE KECCAK256 PUSH1 0x1 ADD SLOAD DUP4 GT ISZERO PUSH2 0x30E2 JUMPI PUSH1 0x40 DUP1 MLOAD PUSH3 0x461BCD PUSH1 0xE5 SHL DUP2 MSTORE PUSH1 0x20 PUSH1 0x4 DUP3 ADD MSTORE PUSH1 0x14 PUSH1 0x24 DUP3 ADD MSTORE PUSH20 0x496E73756666696369656E742062616C616E6365 PUSH1 0x60 SHL PUSH1 0x44 DUP3 ADD MSTORE SWAP1 MLOAD SWAP1 DUP2 SWAP1 SUB PUSH1 0x64 ADD SWAP1 REVERT JUMPDEST PUSH1 0x1 PUSH1 0x1 PUSH1 0xA0 SHL SUB DUP1 DUP9 AND PUSH1 0x0 SWAP1 DUP2 MSTORE PUSH1 0x13 PUSH1 0x20 SWAP1 DUP2 MSTORE PUSH1 0x40 DUP1 DUP4 KECCAK256 SWAP4 DUP11 AND DUP4 MSTORE SWAP3 SWAP1 MSTORE KECCAK256 PUSH1 0x1 ADD DUP1 SLOAD DUP5 SWAP1 SUB SWAP1 SSTORE PUSH2 0x3124 DUP4 DUP13 PUSH2 0x3E8 PUSH4 0xFFFFFFFF PUSH2 0x3292 AND JUMP JUMPDEST SWAP2 POP PUSH2 0x3152 JUMP JUMPDEST POP PUSH1 0x0 DUP5 DUP2 MSTORE PUSH1 0x11 PUSH1 0x20 SWAP1 DUP2 MSTORE PUSH1 0x40 DUP1 DUP4 KECCAK256 DUP7 DUP5 MSTORE SWAP1 SWAP2 MSTORE SWAP1 KECCAK256 PUSH1 0xB ADD DUP1 SLOAD DUP4 SWAP1 SUB SWAP1 SSTORE PUSH1 0x1 JUMPDEST PUSH1 0x40 MLOAD PUSH1 0x1 PUSH1 0x1 PUSH1 0xA0 SHL SUB DUP11 AND SWAP1 DUP4 DUP6 SUB DUP1 ISZERO PUSH2 0x8FC MUL SWAP2 PUSH1 0x0 DUP2 DUP2 DUP2 DUP6 DUP9 DUP9 CALL SWAP4 POP POP POP POP ISZERO DUP1 ISZERO PUSH2 0x3189 JUMPI RETURNDATASIZE PUSH1 0x0 DUP1 RETURNDATACOPY RETURNDATASIZE PUSH1 0x0 REVERT JUMPDEST POP DUP2 ISZERO PUSH2 0x31C8 JUMPI PUSH1 0x40 MLOAD PUSH1 0x1 PUSH1 0x1 PUSH1 0xA0 SHL SUB DUP8 AND SWAP1 DUP4 ISZERO PUSH2 0x8FC MUL SWAP1 DUP5 SWAP1 PUSH1 0x0 DUP2 DUP2 DUP2 DUP6 DUP9 DUP9 CALL SWAP4 POP POP POP POP ISZERO DUP1 ISZERO PUSH2 0x31C6 JUMPI RETURNDATASIZE PUSH1 0x0 DUP1 RETURNDATACOPY RETURNDATASIZE PUSH1 0x0 REVERT JUMPDEST POP JUMPDEST PUSH1 0x40 DUP1 MLOAD DUP4 DUP2 MSTORE PUSH1 0x20 DUP2 ADD DUP6 SWAP1 MSTORE DUP3 ISZERO ISZERO DUP2 DUP4 ADD MSTORE SWAP1 MLOAD PUSH1 0x1 PUSH1 0x1 PUSH1 0xA0 SHL SUB DUP1 DUP13 AND SWAP3 DUP11 DUP3 AND SWAP3 SWAP2 DUP11 AND SWAP2 PUSH32 0xAD9BEB93032D354CB5A2882D2E01B3899620679527A37E4396F8E6DFBA3572BB SWAP2 DUP2 SWAP1 SUB PUSH1 0x60 ADD SWAP1 LOG4 POP POP POP POP POP POP POP POP POP POP POP POP POP POP POP POP POP POP POP POP JUMP JUMPDEST PUSH1 0x0 DUP3 DUP3 MUL DUP4 ISZERO DUP1 PUSH2 0x324D JUMPI POP DUP3 DUP5 DUP3 DUP2 PUSH2 0x324A JUMPI INVALID JUMPDEST DIV EQ JUMPDEST PUSH2 0x2704 JUMPI INVALID JUMPDEST PUSH1 0x0 DUP3 DUP3 GT ISZERO PUSH2 0x325F JUMPI INVALID JUMPDEST POP SWAP1 SUB SWAP1 JUMP JUMPDEST PUSH1 0x0 DUP2 PUSH2 0x326E JUMPI INVALID JUMPDEST PUSH1 0x0 DUP3 DUP5 DUP2 PUSH2 0x3279 JUMPI INVALID JUMPDEST DIV SWAP1 POP DUP3 DUP5 DUP2 PUSH2 0x3285 JUMPI INVALID JUMPDEST MOD DUP2 DUP5 MUL ADD DUP5 EQ PUSH2 0x2704 JUMPI INVALID JUMPDEST PUSH1 0x0 PUSH2 0x2DE2 PUSH2 0x32A1 DUP6 DUP6 PUSH2 0x3233 JUMP JUMPDEST DUP4 PUSH2 0x3265 JUMP JUMPDEST PUSH1 0x40 DUP1 MLOAD PUSH1 0xC0 DUP2 ADD DUP3 MSTORE PUSH1 0x0 DUP1 DUP3 MSTORE PUSH1 0x20 DUP3 ADD DUP2 SWAP1 MSTORE SWAP2 DUP2 ADD DUP3 SWAP1 MSTORE PUSH1 0x60 DUP2 ADD DUP3 SWAP1 MSTORE PUSH1 0x80 DUP2 ADD DUP3 SWAP1 MSTORE PUSH1 0xA0 DUP2 ADD SWAP2 SWAP1 SWAP2 MSTORE SWAP1 JUMP JUMPDEST DUP3 DUP1 SLOAD PUSH1 0x1 DUP2 PUSH1 0x1 AND ISZERO PUSH2 0x100 MUL SUB AND PUSH1 0x2 SWAP1 DIV SWAP1 PUSH1 0x0 MSTORE PUSH1 0x20 PUSH1 0x0 KECCAK256 SWAP1 PUSH1 0x1F ADD PUSH1 0x20 SWAP1 DIV DUP2 ADD SWAP3 DUP3 PUSH1 0x1F LT PUSH2 0x331D JUMPI DUP1 MLOAD PUSH1 0xFF NOT AND DUP4 DUP1 ADD OR DUP6 SSTORE PUSH2 0x334A JUMP JUMPDEST DUP3 DUP1 ADD PUSH1 0x1 ADD DUP6 SSTORE DUP3 ISZERO PUSH2 0x334A JUMPI SWAP2 DUP3 ADD JUMPDEST DUP3 DUP2 GT ISZERO PUSH2 0x334A JUMPI DUP3 MLOAD DUP3 SSTORE SWAP2 PUSH1 0x20 ADD SWAP2 SWAP1 PUSH1 0x1 ADD SWAP1 PUSH2 0x332F JUMP JUMPDEST POP PUSH2 0x3356 SWAP3 SWAP2 POP PUSH2 0x335A JUMP JUMPDEST POP SWAP1 JUMP JUMPDEST PUSH2 0xD42 SWAP2 SWAP1 JUMPDEST DUP1 DUP3 GT ISZERO PUSH2 0x3356 JUMPI PUSH1 0x0 DUP2 SSTORE PUSH1 0x1 ADD PUSH2 0x3360 JUMP INVALID MSTORE PUSH6 0x6C6179657273 KECCAK256 PUSH6 0x6C656374696F PUSH15 0x20706572696F642068617320706173 PUSH20 0x65644D657373616765207369676E65722069736E 0x27 PUSH21 0x20746865206F776E6572206F66206368616E6E656C MSTORE8 PUSH10 0x676E65722073686F756C PUSH5 0x2062652074 PUSH9 0x65206368616E6E656C KECCAK256 0x4F PUSH24 0x6E65725461726765742065706F63682073686F756C642062 PUSH6 0x206772656174 PUSH6 0x72207468616E KECCAK256 PUSH4 0x75727265 PUSH15 0x7452657175657374656420616D6F75 PUSH15 0x742073686F756C6420626520677265 PUSH2 0x7465 PUSH19 0x207468616E207468652070726576696F757320 PUSH7 0x696E616C697A65 PUSH5 0x20666F7220 POP ORIGIN POP KECCAK256 PUSH4 0x6F6E7465 PUSH15 0x74207472616E73616374696F6E6D61 PUSH25 0x54785468726F7567687075742073686F756C64206265206772 PUSH6 0x617465722074 PUSH9 0x616E20304465706F73 PUSH10 0x7420616D6F756E742073 PUSH9 0x6F756C642062652067 PUSH19 0x6561746572207468656E203043757272656E74 KECCAK256 PUSH6 0x706F63682073 PUSH9 0x6F756C64206265206C PUSH16 0x776572207468616E2072657175657374 PUSH6 0x642065706F63 PUSH9 0x6D6178557365727320 PUSH20 0x686F756C64206265206772656174657220746861 PUSH15 0x20304F66662D636861696E20747261 PUSH15 0x73616374696F6E206861736820646F PUSH6 0x732774206D61 PUSH21 0x63682077697468207061796C6F61646F6666636861 PUSH10 0x6E547844656C61792073 PUSH9 0x6F756C642062652067 PUSH19 0x6561746572207468616E2030416C7265616479 KECCAK256 PUSH19 0x6567697374657265642052656C617965722061 PUSH20 0x2063616E646964617465546865206C6F636B5469 PUSH14 0x65496E446179732073686F756C64 KECCAK256 PUSH3 0x652067 PUSH19 0x6561746572207468616E20616E792070726576 PUSH10 0x6F7573206C6F636B2075 PUSH15 0x74696C20426C6F636B52656C617965 PUSH19 0x20646F65736E2774206861766520616E792072 PUSH6 0x6D61696E696E PUSH8 0x2070656E616C7479 KECCAK256 PUSH7 0x756E6473546865 KECCAK256 PUSH13 0x6F636B54696D65496E44617973 KECCAK256 PUSH20 0x686F756C64206265206772656174657220746861 PUSH15 0x207A65726F6D6178436F696E732073 PUSH9 0x6F756C642062652067 PUSH19 0x6561746572207468616E203052657175657374 PUSH6 0x6420616D6F75 PUSH15 0x742073686F756C6420626520677265 PUSH2 0x7465 PUSH19 0x207468616E207468652070726576696F757320 PUSH7 0x696E616C697A65 PUSH5 0x20666F7220 PUSH24 0x697468647261772072657175657374206F72205032502063 PUSH16 0x6E74656E74207472616E73616374696F PUSH15 0xA265627A7A72315820661A5505A8B5 0xDF 0x1E PC PUSH10 0xB20F78C766208D957C1C 0xD3 DUP15 0x4C 0xBB 0xD1 PUSH10 0x742D46E92FE164736F6C PUSH4 0x43000511 STOP ORIGIN "
		},
		"gasEstimates": {
			"creation": {
				"codeDepositCost": "2813800",
				"executionCost": "243141",
				"totalCost": "3056941"
			},
			"external": {
				"blocksBeforeRelayersElectionAllowed()": "1131",
				"blocksBeforeValidatorElectionAllowed()": "1111",
				"blocksPeriodRegulateThroughput()": "1087",
				"calculateReward(uint256)": "infinite",
				"calculateReward(uint256,uint256)": "3718",
				"checkOffchainRelayerSignature(bytes32,bytes32,uint8,bytes32,bytes32,uint256)": "infinite",
				"checkOffchainSignature(bytes32,uint8,bytes32,bytes32,bytes32,uint256,address,uint256)": "infinite",
				"closeChannel(bytes32)": "infinite",
				"depositToChannel(bytes32,uint256)": "infinite",
				"depositToRelayer(address,uint256)": "infinite",
				"epochBlocks()": "1109",
				"epochRelayerIndex(uint256,address)": "1345",
				"finalizeOffchainP2PTransaction(bytes32,uint8,bytes32,bytes32,bytes32,bytes32,uint256)": "infinite",
				"finalizeOffchainRelayerTransaction(bytes32,uint8,bytes32,bytes32,bytes32,uint8,bytes32,bytes32,bytes32,uint256,uint256,address,uint256)": "infinite",
				"freeServiceDisputeThreshold()": "1044",
				"getChannelId(uint256)": "1267",
				"getCurrentEpoch()": "infinite",
				"getCurrentEpochEnd()": "infinite",
				"getCurrentRelayersElectionEnd()": "infinite",
				"getCurrentValidatorsElectionEnd()": "infinite",
				"getEpochByBlock(uint256)": "infinite",
				"getFundRequiredForRelayer(uint256,uint256,uint256)": "infinite",
				"getTargetEpoch()": "infinite",
				"getUserTotalChannels()": "1136",
				"halvingEvery()": "1088",
				"maxReward()": "1110",
				"maximumRelayersNumber()": "1133",
				"maximumValidatorsNumber()": "1088",
				"minReward()": "1087",
				"openChannel(address,uint256)": "168473",
				"pricePerMb()": "1110",
				"relayerWithdrawPenaltyFunds(uint256)": "infinite",
				"relayers(uint256,uint256)": "infinite",
				"relayersCounter(uint256)": "1173",
				"requestRelayerLicense(uint256,string,string,uint256,uint256,uint256,uint256,uint256)": "infinite",
				"testHashing(bytes32,string)": "infinite",
				"updateRelayer(uint256,string,string,uint256,uint256)": "infinite",
				"userDepositOnRelayer(address,address)": "2101",
				"userToBeneficiaryFinalizedAmountForNonce(address,address,address,bytes32)": "1422",
				"withdrawFunds(address,uint256)": "infinite",
				"witnessRequiredBalancePercent()": "1045"
			}
		},
		"methodIdentifiers": {
			"blocksBeforeRelayersElectionAllowed()": "c4602f4d",
			"blocksBeforeValidatorElectionAllowed()": "09b43159",
			"blocksPeriodRegulateThroughput()": "abe55c24",
			"calculateReward(uint256)": "d2d7231f",
			"calculateReward(uint256,uint256)": "13ed0846",
			"checkOffchainRelayerSignature(bytes32,bytes32,uint8,bytes32,bytes32,uint256)": "d59c3cd5",
			"checkOffchainSignature(bytes32,uint8,bytes32,bytes32,bytes32,uint256,address,uint256)": "515e7d85",
			"closeChannel(bytes32)": "4c2ee09d",
			"depositToChannel(bytes32,uint256)": "b1ce1dd2",
			"depositToRelayer(address,uint256)": "03d3d04b",
			"epochBlocks()": "4e4b3bef",
			"epochRelayerIndex(uint256,address)": "77866102",
			"finalizeOffchainP2PTransaction(bytes32,uint8,bytes32,bytes32,bytes32,bytes32,uint256)": "4a72b711",
			"finalizeOffchainRelayerTransaction(bytes32,uint8,bytes32,bytes32,bytes32,uint8,bytes32,bytes32,bytes32,uint256,uint256,address,uint256)": "fa3cbf47",
			"freeServiceDisputeThreshold()": "0d3d3194",
			"getChannelId(uint256)": "360f5027",
			"getCurrentEpoch()": "b97dd9e2",
			"getCurrentEpochEnd()": "33d052ff",
			"getCurrentRelayersElectionEnd()": "f52ca970",
			"getCurrentValidatorsElectionEnd()": "3563765f",
			"getEpochByBlock(uint256)": "46df33d2",
			"getFundRequiredForRelayer(uint256,uint256,uint256)": "afe73a26",
			"getTargetEpoch()": "86d2f651",
			"getUserTotalChannels()": "01f384a9",
			"halvingEvery()": "1fdeb335",
			"maxReward()": "66a78e6c",
			"maximumRelayersNumber()": "0a893664",
			"maximumValidatorsNumber()": "65776ed6",
			"minReward()": "ba16d600",
			"openChannel(address,uint256)": "24f453d1",
			"pricePerMb()": "45597038",
			"relayerWithdrawPenaltyFunds(uint256)": "cab9b6de",
			"relayers(uint256,uint256)": "2e0e6af2",
			"relayersCounter(uint256)": "4a845b74",
			"requestRelayerLicense(uint256,string,string,uint256,uint256,uint256,uint256,uint256)": "58c168a0",
			"testHashing(bytes32,string)": "ac5e13e7",
			"updateRelayer(uint256,string,string,uint256,uint256)": "d23cbebc",
			"userDepositOnRelayer(address,address)": "8187f184",
			"userToBeneficiaryFinalizedAmountForNonce(address,address,address,bytes32)": "53ebf401",
			"withdrawFunds(address,uint256)": "c1075329",
			"witnessRequiredBalancePercent()": "00af0fd2"
		}
	},
	"abi": [
		{
			"inputs": [],
			"payable": false,
			"stateMutability": "nonpayable",
			"type": "constructor"
		},
		{
			"anonymous": false,
			"inputs": [
				{
					"indexed": false,
					"internalType": "bytes32",
					"name": "id",
					"type": "bytes32"
				},
				{
					"indexed": true,
					"internalType": "address",
					"name": "sender",
					"type": "address"
				},
				{
					"indexed": false,
					"internalType": "uint256",
					"name": "amount",
					"type": "uint256"
				}
			],
			"name": "ChannelClosed",
			"type": "event"
		},
		{
			"anonymous": false,
			"inputs": [
				{
					"indexed": false,
					"internalType": "bytes32",
					"name": "id",
					"type": "bytes32"
				},
				{
					"indexed": true,
					"internalType": "address",
					"name": "sender",
					"type": "address"
				},
				{
					"indexed": true,
					"internalType": "address",
					"name": "recipient",
					"type": "address"
				},
				{
					"indexed": false,
					"internalType": "uint256",
					"name": "amount",
					"type": "uint256"
				}
			],
			"name": "ChannelOpened",
			"type": "event"
		},
		{
			"anonymous": false,
			"inputs": [
				{
					"indexed": false,
					"internalType": "bytes32",
					"name": "id",
					"type": "bytes32"
				},
				{
					"indexed": true,
					"internalType": "address",
					"name": "sender",
					"type": "address"
				},
				{
					"indexed": false,
					"internalType": "uint256",
					"name": "amount",
					"type": "uint256"
				}
			],
			"name": "DepositToChannel",
			"type": "event"
		},
		{
			"anonymous": false,
			"inputs": [
				{
					"indexed": true,
					"internalType": "bytes32",
					"name": "channelId",
					"type": "bytes32"
				},
				{
					"indexed": true,
					"internalType": "address",
					"name": "sender",
					"type": "address"
				},
				{
					"indexed": true,
					"internalType": "address",
					"name": "recipient",
					"type": "address"
				},
				{
					"indexed": false,
					"internalType": "uint256",
					"name": "recipientAmount",
					"type": "uint256"
				}
			],
			"name": "P2POffChainTransaction",
			"type": "event"
		},
		{
			"anonymous": false,
			"inputs": [
				{
					"indexed": true,
					"internalType": "address",
					"name": "relayer",
					"type": "address"
				},
				{
					"indexed": true,
					"internalType": "address",
					"name": "user",
					"type": "address"
				},
				{
					"indexed": true,
					"internalType": "address",
					"name": "beneficiary",
					"type": "address"
				},
				{
					"indexed": false,
					"internalType": "uint256",
					"name": "relayerFee",
					"type": "uint256"
				},
				{
					"indexed": false,
					"internalType": "uint256",
					"name": "beneficiaryAmount",
					"type": "uint256"
				},
				{
					"indexed": false,
					"internalType": "bool",
					"name": "isPayedFromPenaltyFunds",
					"type": "bool"
				}
			],
			"name": "RelayedOffChainTransaction",
			"type": "event"
		},
		{
			"anonymous": false,
			"inputs": [
				{
					"indexed": true,
					"internalType": "uint256",
					"name": "epoch",
					"type": "uint256"
				},
				{
					"indexed": true,
					"internalType": "address",
					"name": "relayer",
					"type": "address"
				},
				{
					"indexed": false,
					"internalType": "string",
					"name": "domain",
					"type": "string"
				},
				{
					"indexed": true,
					"internalType": "address",
					"name": "owner",
					"type": "address"
				},
				{
					"indexed": false,
					"internalType": "string",
					"name": "name",
					"type": "string"
				},
				{
					"indexed": false,
					"internalType": "uint256",
					"name": "fee",
					"type": "uint256"
				},
				{
					"indexed": false,
					"internalType": "uint256",
					"name": "offchainTxDelay",
					"type": "uint256"
				}
			],
			"name": "RelayerProposed",
			"type": "event"
		},
		{
			"anonymous": false,
			"inputs": [
				{
					"indexed": true,
					"internalType": "uint256",
					"name": "epoch",
					"type": "uint256"
				},
				{
					"indexed": true,
					"internalType": "address",
					"name": "relayer",
					"type": "address"
				},
				{
					"indexed": false,
					"internalType": "string",
					"name": "domain",
					"type": "string"
				},
				{
					"indexed": false,
					"internalType": "string",
					"name": "name",
					"type": "string"
				},
				{
					"indexed": false,
					"internalType": "uint256",
					"name": "fee",
					"type": "uint256"
				},
				{
					"indexed": false,
					"internalType": "uint256",
					"name": "offchainTxDelay",
					"type": "uint256"
				}
			],
			"name": "RelayerUpdated",
			"type": "event"
		},
		{
			"anonymous": false,
			"inputs": [
				{
					"indexed": true,
					"internalType": "uint256",
					"name": "epoch",
					"type": "uint256"
				},
				{
					"indexed": true,
					"internalType": "address",
					"name": "relayer",
					"type": "address"
				},
				{
					"indexed": false,
					"internalType": "uint256",
					"name": "amount",
					"type": "uint256"
				}
			],
			"name": "RelayerWithdrawFunds",
			"type": "event"
		},
		{
			"anonymous": false,
			"inputs": [
				{
					"indexed": true,
					"internalType": "address",
					"name": "relayer",
					"type": "address"
				},
				{
					"indexed": true,
					"internalType": "address",
					"name": "user",
					"type": "address"
				},
				{
					"indexed": false,
					"internalType": "uint256",
					"name": "amount",
					"type": "uint256"
				}
			],
			"name": "UserDeposit",
			"type": "event"
		},
		{
			"anonymous": false,
			"inputs": [
				{
					"indexed": true,
					"internalType": "address",
					"name": "relayer",
					"type": "address"
				},
				{
					"indexed": true,
					"internalType": "address",
					"name": "user",
					"type": "address"
				},
				{
					"indexed": false,
					"internalType": "uint256",
					"name": "amount",
					"type": "uint256"
				}
			],
			"name": "UserWithdraw",
			"type": "event"
		},
		{
			"constant": true,
			"inputs": [],
			"name": "blocksBeforeRelayersElectionAllowed",
			"outputs": [
				{
					"internalType": "uint256",
					"name": "",
					"type": "uint256"
				}
			],
			"payable": false,
			"stateMutability": "view",
			"type": "function"
		},
		{
			"constant": true,
			"inputs": [],
			"name": "blocksBeforeValidatorElectionAllowed",
			"outputs": [
				{
					"internalType": "uint256",
					"name": "",
					"type": "uint256"
				}
			],
			"payable": false,
			"stateMutability": "view",
			"type": "function"
		},
		{
			"constant": true,
			"inputs": [],
			"name": "blocksPeriodRegulateThroughput",
			"outputs": [
				{
					"internalType": "uint256",
					"name": "",
					"type": "uint256"
				}
			],
			"payable": false,
			"stateMutability": "view",
			"type": "function"
		},
		{
			"constant": true,
			"inputs": [
				{
					"internalType": "uint256",
					"name": "issuanceBlock",
					"type": "uint256"
				},
				{
					"internalType": "uint256",
					"name": "lastClaimedIssuanceBlock",
					"type": "uint256"
				}
			],
			"name": "calculateReward",
			"outputs": [
				{
					"internalType": "uint256",
					"name": "",
					"type": "uint256"
				}
			],
			"payable": false,
			"stateMutability": "view",
			"type": "function"
		},
		{
			"constant": true,
			"inputs": [
				{
					"internalType": "uint256",
					"name": "epoch",
					"type": "uint256"
				}
			],
			"name": "calculateReward",
			"outputs": [
				{
					"internalType": "uint256",
					"name": "",
					"type": "uint256"
				}
			],
			"payable": false,
			"stateMutability": "view",
			"type": "function"
		},
		{
			"constant": true,
			"inputs": [
				{
					"internalType": "bytes32",
					"name": "proof",
					"type": "bytes32"
				},
				{
					"internalType": "bytes32",
					"name": "rh",
					"type": "bytes32"
				},
				{
					"internalType": "uint8",
					"name": "rv",
					"type": "uint8"
				},
				{
					"internalType": "bytes32",
					"name": "rr",
					"type": "bytes32"
				},
				{
					"internalType": "bytes32",
					"name": "rs",
					"type": "bytes32"
				},
				{
					"internalType": "uint256",
					"name": "txUntilBlock",
					"type": "uint256"
				}
			],
			"name": "checkOffchainRelayerSignature",
			"outputs": [
				{
					"internalType": "address payable",
					"name": "relayerid",
					"type": "address"
				}
			],
			"payable": false,
			"stateMutability": "view",
			"type": "function"
		},
		{
			"constant": true,
			"inputs": [
				{
					"internalType": "bytes32",
					"name": "h",
					"type": "bytes32"
				},
				{
					"internalType": "uint8",
					"name": "v",
					"type": "uint8"
				},
				{
					"internalType": "bytes32",
					"name": "r",
					"type": "bytes32"
				},
				{
					"internalType": "bytes32",
					"name": "s",
					"type": "bytes32"
				},
				{
					"internalType": "bytes32",
					"name": "nonce",
					"type": "bytes32"
				},
				{
					"internalType": "uint256",
					"name": "fee",
					"type": "uint256"
				},
				{
					"internalType": "address payable",
					"name": "beneficiary",
					"type": "address"
				},
				{
					"internalType": "uint256",
					"name": "amount",
					"type": "uint256"
				}
			],
			"name": "checkOffchainSignature",
			"outputs": [
				{
					"internalType": "address",
					"name": "signer",
					"type": "address"
				}
			],
			"payable": false,
			"stateMutability": "view",
			"type": "function"
		},
		{
			"constant": false,
			"inputs": [
				{
					"internalType": "bytes32",
					"name": "id",
					"type": "bytes32"
				}
			],
			"name": "closeChannel",
			"outputs": [],
			"payable": false,
			"stateMutability": "nonpayable",
			"type": "function"
		},
		{
			"constant": false,
			"inputs": [
				{
					"internalType": "bytes32",
					"name": "id",
					"type": "bytes32"
				},
				{
					"internalType": "uint256",
					"name": "increaseLckTimeInDays",
					"type": "uint256"
				}
			],
			"name": "depositToChannel",
			"outputs": [],
			"payable": true,
			"stateMutability": "payable",
			"type": "function"
		},
		{
			"constant": false,
			"inputs": [
				{
					"internalType": "address",
					"name": "relayerId",
					"type": "address"
				},
				{
					"internalType": "uint256",
					"name": "lockUntilBlock",
					"type": "uint256"
				}
			],
			"name": "depositToRelayer",
			"outputs": [],
			"payable": true,
			"stateMutability": "payable",
			"type": "function"
		},
		{
			"constant": true,
			"inputs": [],
			"name": "epochBlocks",
			"outputs": [
				{
					"internalType": "uint256",
					"name": "",
					"type": "uint256"
				}
			],
			"payable": false,
			"stateMutability": "view",
			"type": "function"
		},
		{
			"constant": true,
			"inputs": [
				{
					"internalType": "uint256",
					"name": "",
					"type": "uint256"
				},
				{
					"internalType": "address",
					"name": "",
					"type": "address"
				}
			],
			"name": "epochRelayerIndex",
			"outputs": [
				{
					"internalType": "uint256",
					"name": "",
					"type": "uint256"
				}
			],
			"payable": false,
			"stateMutability": "view",
			"type": "function"
		},
		{
			"constant": false,
			"inputs": [
				{
					"internalType": "bytes32",
					"name": "h",
					"type": "bytes32"
				},
				{
					"internalType": "uint8",
					"name": "v",
					"type": "uint8"
				},
				{
					"internalType": "bytes32",
					"name": "r",
					"type": "bytes32"
				},
				{
					"internalType": "bytes32",
					"name": "s",
					"type": "bytes32"
				},
				{
					"internalType": "bytes32",
					"name": "channelId",
					"type": "bytes32"
				},
				{
					"internalType": "bytes32",
					"name": "nonce",
					"type": "bytes32"
				},
				{
					"internalType": "uint256",
					"name": "amount",
					"type": "uint256"
				}
			],
			"name": "finalizeOffchainP2PTransaction",
			"outputs": [],
			"payable": false,
			"stateMutability": "nonpayable",
			"type": "function"
		},
		{
			"constant": false,
			"inputs": [
				{
					"internalType": "bytes32",
					"name": "h",
					"type": "bytes32"
				},
				{
					"internalType": "uint8",
					"name": "v",
					"type": "uint8"
				},
				{
					"internalType": "bytes32",
					"name": "r",
					"type": "bytes32"
				},
				{
					"internalType": "bytes32",
					"name": "s",
					"type": "bytes32"
				},
				{
					"internalType": "bytes32",
					"name": "rh",
					"type": "bytes32"
				},
				{
					"internalType": "uint8",
					"name": "rv",
					"type": "uint8"
				},
				{
					"internalType": "bytes32",
					"name": "rr",
					"type": "bytes32"
				},
				{
					"internalType": "bytes32",
					"name": "rs",
					"type": "bytes32"
				},
				{
					"internalType": "bytes32",
					"name": "nonce",
					"type": "bytes32"
				},
				{
					"internalType": "uint256",
					"name": "fee",
					"type": "uint256"
				},
				{
					"internalType": "uint256",
					"name": "txUntilBlock",
					"type": "uint256"
				},
				{
					"internalType": "address payable",
					"name": "beneficiary",
					"type": "address"
				},
				{
					"internalType": "uint256",
					"name": "amount",
					"type": "uint256"
				}
			],
			"name": "finalizeOffchainRelayerTransaction",
			"outputs": [],
			"payable": false,
			"stateMutability": "nonpayable",
			"type": "function"
		},
		{
			"constant": true,
			"inputs": [],
			"name": "freeServiceDisputeThreshold",
			"outputs": [
				{
					"internalType": "uint256",
					"name": "",
					"type": "uint256"
				}
			],
			"payable": false,
			"stateMutability": "view",
			"type": "function"
		},
		{
			"constant": true,
			"inputs": [
				{
					"internalType": "uint256",
					"name": "userChannelId",
					"type": "uint256"
				}
			],
			"name": "getChannelId",
			"outputs": [
				{
					"internalType": "bytes32",
					"name": "",
					"type": "bytes32"
				}
			],
			"payable": false,
			"stateMutability": "view",
			"type": "function"
		},
		{
			"constant": true,
			"inputs": [],
			"name": "getCurrentEpoch",
			"outputs": [
				{
					"internalType": "uint256",
					"name": "epoch",
					"type": "uint256"
				}
			],
			"payable": false,
			"stateMutability": "view",
			"type": "function"
		},
		{
			"constant": true,
			"inputs": [],
			"name": "getCurrentEpochEnd",
			"outputs": [
				{
					"internalType": "uint256",
					"name": "epoch",
					"type": "uint256"
				}
			],
			"payable": false,
			"stateMutability": "view",
			"type": "function"
		},
		{
			"constant": true,
			"inputs": [],
			"name": "getCurrentRelayersElectionEnd",
			"outputs": [
				{
					"internalType": "uint256",
					"name": "epoch",
					"type": "uint256"
				}
			],
			"payable": false,
			"stateMutability": "view",
			"type": "function"
		},
		{
			"constant": true,
			"inputs": [],
			"name": "getCurrentValidatorsElectionEnd",
			"outputs": [
				{
					"internalType": "uint256",
					"name": "epoch",
					"type": "uint256"
				}
			],
			"payable": false,
			"stateMutability": "view",
			"type": "function"
		},
		{
			"constant": true,
			"inputs": [
				{
					"internalType": "uint256",
					"name": "requestedBlock",
					"type": "uint256"
				}
			],
			"name": "getEpochByBlock",
			"outputs": [
				{
					"internalType": "uint256",
					"name": "epoch",
					"type": "uint256"
				}
			],
			"payable": false,
			"stateMutability": "view",
			"type": "function"
		},
		{
			"constant": true,
			"inputs": [
				{
					"internalType": "uint256",
					"name": "maxUsers",
					"type": "uint256"
				},
				{
					"internalType": "uint256",
					"name": "maxCoins",
					"type": "uint256"
				},
				{
					"internalType": "uint256",
					"name": "maxTxThroughputPer100000Blocks",
					"type": "uint256"
				}
			],
			"name": "getFundRequiredForRelayer",
			"outputs": [
				{
					"internalType": "uint256",
					"name": "requiredAmount",
					"type": "uint256"
				}
			],
			"payable": false,
			"stateMutability": "view",
			"type": "function"
		},
		{
			"constant": true,
			"inputs": [],
			"name": "getTargetEpoch",
			"outputs": [
				{
					"internalType": "uint256",
					"name": "epoch",
					"type": "uint256"
				}
			],
			"payable": false,
			"stateMutability": "view",
			"type": "function"
		},
		{
			"constant": true,
			"inputs": [],
			"name": "getUserTotalChannels",
			"outputs": [
				{
					"internalType": "uint256",
					"name": "",
					"type": "uint256"
				}
			],
			"payable": false,
			"stateMutability": "view",
			"type": "function"
		},
		{
			"constant": true,
			"inputs": [],
			"name": "halvingEvery",
			"outputs": [
				{
					"internalType": "uint256",
					"name": "",
					"type": "uint256"
				}
			],
			"payable": false,
			"stateMutability": "view",
			"type": "function"
		},
		{
			"constant": true,
			"inputs": [],
			"name": "maxReward",
			"outputs": [
				{
					"internalType": "uint256",
					"name": "",
					"type": "uint256"
				}
			],
			"payable": false,
			"stateMutability": "view",
			"type": "function"
		},
		{
			"constant": true,
			"inputs": [],
			"name": "maximumRelayersNumber",
			"outputs": [
				{
					"internalType": "uint256",
					"name": "",
					"type": "uint256"
				}
			],
			"payable": false,
			"stateMutability": "view",
			"type": "function"
		},
		{
			"constant": true,
			"inputs": [],
			"name": "maximumValidatorsNumber",
			"outputs": [
				{
					"internalType": "uint256",
					"name": "",
					"type": "uint256"
				}
			],
			"payable": false,
			"stateMutability": "view",
			"type": "function"
		},
		{
			"constant": true,
			"inputs": [],
			"name": "minReward",
			"outputs": [
				{
					"internalType": "uint256",
					"name": "",
					"type": "uint256"
				}
			],
			"payable": false,
			"stateMutability": "view",
			"type": "function"
		},
		{
			"constant": false,
			"inputs": [
				{
					"internalType": "address payable",
					"name": "recipient",
					"type": "address"
				},
				{
					"internalType": "uint256",
					"name": "lockTimeInDays",
					"type": "uint256"
				}
			],
			"name": "openChannel",
			"outputs": [],
			"payable": true,
			"stateMutability": "payable",
			"type": "function"
		},
		{
			"constant": true,
			"inputs": [],
			"name": "pricePerMb",
			"outputs": [
				{
					"internalType": "uint256",
					"name": "",
					"type": "uint256"
				}
			],
			"payable": false,
			"stateMutability": "view",
			"type": "function"
		},
		{
			"constant": false,
			"inputs": [
				{
					"internalType": "uint256",
					"name": "targetEpoch",
					"type": "uint256"
				}
			],
			"name": "relayerWithdrawPenaltyFunds",
			"outputs": [],
			"payable": false,
			"stateMutability": "nonpayable",
			"type": "function"
		},
		{
			"constant": true,
			"inputs": [
				{
					"internalType": "uint256",
					"name": "",
					"type": "uint256"
				},
				{
					"internalType": "uint256",
					"name": "",
					"type": "uint256"
				}
			],
			"name": "relayers",
			"outputs": [
				{
					"internalType": "string",
					"name": "name",
					"type": "string"
				},
				{
					"internalType": "address payable",
					"name": "owner",
					"type": "address"
				},
				{
					"internalType": "string",
					"name": "domain",
					"type": "string"
				},
				{
					"internalType": "uint256",
					"name": "maxUsers",
					"type": "uint256"
				},
				{
					"internalType": "uint256",
					"name": "maxCoins",
					"type": "uint256"
				},
				{
					"internalType": "uint256",
					"name": "maxTxThroughput",
					"type": "uint256"
				},
				{
					"internalType": "uint256",
					"name": "currentUsers",
					"type": "uint256"
				},
				{
					"internalType": "uint256",
					"name": "currentCoins",
					"type": "uint256"
				},
				{
					"internalType": "uint256",
					"name": "currentTxThroughput",
					"type": "uint256"
				},
				{
					"internalType": "uint256",
					"name": "offchainTxDelay",
					"type": "uint256"
				},
				{
					"internalType": "uint256",
					"name": "fee",
					"type": "uint256"
				},
				{
					"internalType": "uint256",
					"name": "remainingPenaltyFunds",
					"type": "uint256"
				}
			],
			"payable": false,
			"stateMutability": "view",
			"type": "function"
		},
		{
			"constant": true,
			"inputs": [
				{
					"internalType": "uint256",
					"name": "",
					"type": "uint256"
				}
			],
			"name": "relayersCounter",
			"outputs": [
				{
					"internalType": "uint256",
					"name": "",
					"type": "uint256"
				}
			],
			"payable": false,
			"stateMutability": "view",
			"type": "function"
		},
		{
			"constant": false,
			"inputs": [
				{
					"internalType": "uint256",
					"name": "targetEpoch",
					"type": "uint256"
				},
				{
					"internalType": "string",
					"name": "domain",
					"type": "string"
				},
				{
					"internalType": "string",
					"name": "name",
					"type": "string"
				},
				{
					"internalType": "uint256",
					"name": "fee",
					"type": "uint256"
				},
				{
					"internalType": "uint256",
					"name": "maxUsers",
					"type": "uint256"
				},
				{
					"internalType": "uint256",
					"name": "maxCoins",
					"type": "uint256"
				},
				{
					"internalType": "uint256",
					"name": "maxTxThroughput",
					"type": "uint256"
				},
				{
					"internalType": "uint256",
					"name": "offchainTxDelay",
					"type": "uint256"
				}
			],
			"name": "requestRelayerLicense",
			"outputs": [],
			"payable": true,
			"stateMutability": "payable",
			"type": "function"
		},
		{
			"constant": true,
			"inputs": [
				{
					"internalType": "bytes32",
					"name": "id",
					"type": "bytes32"
				},
				{
					"internalType": "string",
					"name": "domain",
					"type": "string"
				}
			],
			"name": "testHashing",
			"outputs": [
				{
					"internalType": "bool",
					"name": "",
					"type": "bool"
				},
				{
					"internalType": "bytes32",
					"name": "",
					"type": "bytes32"
				},
				{
					"internalType": "bytes32",
					"name": "",
					"type": "bytes32"
				}
			],
			"payable": false,
			"stateMutability": "view",
			"type": "function"
		},
		{
			"constant": false,
			"inputs": [
				{
					"internalType": "uint256",
					"name": "targetEpoch",
					"type": "uint256"
				},
				{
					"internalType": "string",
					"name": "domain",
					"type": "string"
				},
				{
					"internalType": "string",
					"name": "name",
					"type": "string"
				},
				{
					"internalType": "uint256",
					"name": "fee",
					"type": "uint256"
				},
				{
					"internalType": "uint256",
					"name": "offchainTxDelay",
					"type": "uint256"
				}
			],
			"name": "updateRelayer",
			"outputs": [],
			"payable": false,
			"stateMutability": "nonpayable",
			"type": "function"
		},
		{
			"constant": true,
			"inputs": [
				{
					"internalType": "address",
					"name": "",
					"type": "address"
				},
				{
					"internalType": "address",
					"name": "",
					"type": "address"
				}
			],
			"name": "userDepositOnRelayer",
			"outputs": [
				{
					"internalType": "uint256",
					"name": "lockUntilBlock",
					"type": "uint256"
				},
				{
					"internalType": "uint256",
					"name": "balance",
					"type": "uint256"
				}
			],
			"payable": false,
			"stateMutability": "view",
			"type": "function"
		},
		{
			"constant": true,
			"inputs": [
				{
					"internalType": "address",
					"name": "",
					"type": "address"
				},
				{
					"internalType": "address",
					"name": "",
					"type": "address"
				},
				{
					"internalType": "address",
					"name": "",
					"type": "address"
				},
				{
					"internalType": "bytes32",
					"name": "",
					"type": "bytes32"
				}
			],
			"name": "userToBeneficiaryFinalizedAmountForNonce",
			"outputs": [
				{
					"internalType": "uint256",
					"name": "",
					"type": "uint256"
				}
			],
			"payable": false,
			"stateMutability": "view",
			"type": "function"
		},
		{
			"constant": false,
			"inputs": [
				{
					"internalType": "address",
					"name": "relayerId",
					"type": "address"
				},
				{
					"internalType": "uint256",
					"name": "amount",
					"type": "uint256"
				}
			],
			"name": "withdrawFunds",
			"outputs": [],
			"payable": false,
			"stateMutability": "nonpayable",
			"type": "function"
		},
		{
			"constant": true,
			"inputs": [],
			"name": "witnessRequiredBalancePercent",
			"outputs": [
				{
					"internalType": "uint256",
					"name": "",
					"type": "uint256"
				}
			],
			"payable": false,
			"stateMutability": "view",
			"type": "function"
		}
	]
}